:040000006F10E02A73
:100004000000000000000000020B0000040B0000D0
:1000140000000000AC12000000000000000000001E
:10002400AC120000AC120000000000000000000050
:10003400AC12000000000000AC1200000000000040
:10004400AC120000AC120000AC120000AC120000B4
:10005400AC120000AC120000AC120000AC120000A4
:10006400AC120000AC120000AC120000AC12000094
:10007400AC120000AC120000AC120000AC12000084
:10008400AC120000AC120000AC120000AC12000074
:10009400AC120000AC120000AC120000AC12000064
:1000A400AC120000AC120000AC120000AC12000054
:1000B400AC120000AC120000AC120000AC12000044
:1000C400AC120000AC120000AC120000AC12000034
:1000D400AC120000680F0000AC120000AC1200006B
:1000E400AC120000AC120000AC120000AC12000014
:0C00F400AC120000AC120000AC120000C6
:10010000397101436EC619A0397141536AC866CA74
:1001100062CC5ECE19A0397101535AD056D252D456
:100120004ED64AD826DA22DC06DE330161408282CE
:1001300041114AC026C222C406C68282B24D410184
:10014000024D924C224CB24B4101024B924A224A40
:10015000B2494101024992442244B24041018280A5
:100160003D432A876373C3029377F700BDEFADE584
:10017000937606FF3D8ABA960CC34CC30CC74CC796
:100180004107E36BD7FE11E28280B306C3408A06C3
:100190009702000096966780A6002307B700A30683
:1001A000B7002306B700A305B7002305B700A304D3
:1001B000B7002304B700A303B7002303B700A302CB
:1001C000B7002302B700A301B7002301B700A300C3
:1001D000B7002300B700828093F5F50F9396850052
:1001E000D58D93960501D58D61B79396270097021B
:1001F000000096968682E78086FA9680C1171D8F4A
:100200003E96E374C3F8A5B7EFF2FFF0B7140140D0
:10021000138504C0930500408569EF10A023614950
:100220000144938404C09389098093050040268586
:10023000EF1000210545EF1020639305004026854F
:10024000EF104021CE852685EF10E01D854706047E
:100250006313F50005047D1905451379F90FEF10B7
:10026000A060E31409FCB714014093050040138516
:1002700004C0EF10E01C0545EF10005F930500403F
:10028000138504C0EF10001D0545EF10E05D9317C6
:10029000840063D60700370500FF418D7DB5131537
:1002A00084002181E5BFEFF2BFE84111854521457A
:1002B00002C202C402C6EF10802D9307004037141B
:1002C00001407C82C1473EC64C008D47130504C0E7
:1002D0003EC4EF1020068567938707807C824C0020
:1002E00093078004130504C03EC6EF10A0049305D5
:1002F0000040130504C0EF10E0154101A1BDEFF26D
:100300003FE385653715014093850580130505C0DA
:10031000EF1060111335150035BDEFF27FE12A842F
:1003200019E0014505BDE13F7D1409E50545EF10E4
:100330000057FDB70545FDB7EFF29FDF1305C0126B
:10034000E93F11E9373500001305C57BEF20603B1D
:1003500003A5018201B54D3DF5BFEFF2DFDB314969
:10036000014481498144214A130520037D3709CD89
:10037000613D9355F5414E95B3373501AE94050473
:10038000AA89BE941374F40F7D1929451379F90FC6
:10039000EF10E05063060902E31844FD228681460F
:1003A0004E85A685EF10E05EAA8523A0A182373591
:1003B000000022861305857EEF206023054401A8F6
:1003C00071FC373500001305457DEF208033228511
:1003D000ADBBEFF2FFD58D3783A701823385A740F0
:1003E000EF208002B707002083A50708EF10D05048
:1003F000EF10707B85B3EFF2BFD3411185451145F6
:1004000002C202C402C6EF1080189307000337141B
:1004100001407C82C1473EC64C008D4713050480D5
:100420003EC4EF0030719305000313050480EF1004
:100430006002410105B3EFF2BFCF3745000013055D
:100440004581EF20002C3714014013050480C1457D
:10045000EF00107F9305000213050480EF00907FEA
:10046000D5B9EFF2FFCC374500001305C582EF2068
:1004700040293714014013050480C145EF00907DE9
:100480009305000213050480EF00907BE1B1EFF2C9
:100490003FCA3745000013054584EF2080263715F5
:1004A00001409305000313050580EF00B07A5DB1AC
:1004B000EFF21FC837150140854513050580EF0091
:1004C000707949B9EFF2DFC637150140854513054C
:1004D0000580EF00F076BDB9EFF29FC5411185456B
:1004E000114502C202C402C6EF10600A9D473714CC
:1004F00001407C82C1474C00130504803EC68D47F5
:100500003EC4EF0030637D3F130504808945EF0052
:100510007074914513050480EF00D07341011DB93B
:10052000EFF21FC1914501E9371501401305058020
:10053000EF00107105B13715014013050580EF007C
:100540007071CDBF83C74182094589E703C5018327
:100550001335150083C7818399C31365050803A765
:100560004183CD4763D4E700136505048280854746
:100570002382F182238C01822388018283D6C18366
:100580002394D1822385F1828280EFF27FBA03C760
:10059000018303A841834111938741800DE30947FB
:1005A00098A342C445372248AA8701478946014695
:1005B000814513050002EF009016410161BEB94666
:1005C00094A342C63AC4BD3F3248AA872247B946DF
:1005D000F9BFEFF2FFB51384B1821C20054591E706
:1005E000AD3B01C585471CA00545ADB6EFF25FB434
:1005F0008D4401490144F13B9355F541FD144A9561
:10060000B33725012E942A8993F4F40F51453E9473
:10061000EF10E028EDF00D4681464A85A285EF10E7
:10062000403723AAA1823DB6EFF29FB04111AE86BA
:1006300032871DC1002104313AC636C4213703A8D0
:1006400041833247A246AA872686A2851305000267
:10065000EF00F00C4101FDBC01448144F1BFEFF219
:100660003FAD2388A18239472382E1802382018222
:1006700083C7A1822A8691C713858182B9456D37C8
:10068000D1BC1385C183DDBFEFF29FAA2382A18075
:10069000930745FF93F7F70F0547AA85636EF700A9
:1006A000238CE1822382018283C7A18285C31385C3
:1006B00081820146953F79BC9306F5FF93F6F60FCC
:1006C000E372D7FE0947E391E7FEE9BF1385C183D3
:1006D000CDB7EFF2FFA5653BF533EF00605B2382FA
:1006E000018223850182BDB4EFF2FFA23971C144BA
:1006F0006800EF00E0616302050A1C86E39A97FE3A
:100700008886A1470C87630BF50A63E9A7009D471C
:100710006308F5081D46EF00605CD9BFA547630577
:10072000F504B147E318F5FE3145EF004058853335
:10073000513B98869387818298A31887054598B383
:1007400085472385F1822382F182238C01822388CD
:100750000182152201E903C7418085476304F70040
:100760001945F53DBD370DA82545EF00405405332B
:10077000913B238201822385018223880182238C7D
:10078000018205472382E1809C86014685455C8085
:100790001C870A85DC80493D054521616FF0FF9A81
:1007A0001D45EF00C0509C8603C6018383C5418070
:1007B0005C821C874800DC82853D1DBF2145EF001F
:1007C000004F013D01E51545593D1DB705359C8696
:1007D00023AAA18201465C841C8783C5418028002E
:1007E000DC84D9BFEFF23F93AA890144254AED3D4D
:1007F0002A8919EDB384894063739A00A944268538
:100800002694EF10C009E36434FF4A856FF0FF932C
:100810000549E5BFEFF23F9041112AC651393245F3
:10082000B71401404969ED39014493840480930968
:10083000800C1309894F89452685EF007040130508
:100840004006EF10600289452685EF00B040130591
:100850004006EF106001B377340381EB713511C5A9
:100860009531054541016FF05F8E0504E31524FDC8
:1008700091390145C5BFEFF2BF8BAA8425452935C3
:10088000CD360565130585A2B13F11C50931014477
:1008900022856FF03F8C2A84DD3E2945F5332D45B6
:1008A000E5330545853F6DF589C43145F13B268427
:1008B000C5B731472382E1800547238CE182054497
:1008C000C1BFEFF2FF86D9240139EFF0DFB2EFF0BC
:1008D0009F9DEF008078653EF536EF006076A3853A
:1008E00001820947238201822382E18023880182D9
:1008F000238C018223AA018223A60182239E0182E6
:10090000239401822385018249316FF0BF84EFF285
:10091000AFFF39716800ED2E1384C1826300051C9E
:1009200088860C872320040018869387C18388A3B8
:100930008CB3C1479384C1836319F70403C7418211
:10094000138941820DC3930795FF13F7F70F95475E
:1009500063E8E7008547B397E70093F7770281E7FD
:100960001D46AD2E1DA09307F5FF93F7F70F2D47FA
:100970006364F71611678A0713078785BA979C4344
:10098000828705452D26EFF05FC021616FF04FFB98
:10099000EFF0FFBD0C878886192E253901E5154536
:1009A0007D3925A00D45CD310145AD3519ED1145F8
:1009B000E1391545D139EFF01FA80565130585A26A
:1009C00015352A8409C5EFF09FAC21337DBFEFF0C8
:1009D0001FAC194555391D4545391309B004938994
:1009E00081824D4B894B09336DF1EFF03FC083C7D6
:1009F000A18223AAA182138C4183268591C34E85AF
:100A000001469D45153183270C00635FFB000504FB
:100A10001374F40F63FB8B002145BD310545A13DE7
:100A20004DD53545953155B701441305800C5D3BD7
:100A300049FD7D19E31909FA3D3D054595B71D4569
:100A4000BD2403C6018383C541801385C183EFF0B4
:100A5000BFBD25BF2145A12CEFF0BFB709E5154566
:100A6000EFF0FFBF1DB7EFF07FB823AAA1820146C8
:100A7000D9BF25452D2CEFF09FA1EFF0BFA4092C85
:100A8000238501822388018223000900238C0182AF
:100A90000545EFF07FBFD5BDEFF07FAD88860C87B1
:100AA00039240545C93BE31205F203C74180854758
:100AB000E30DF7F01945EDB52945D52A23880182C4
:100AC000238C0182238501820945E1B72D45C5228A
:100AD000A12B03C5418075BF214661B52945EF00B3
:100AE000105C1C4003C74182A9071CC0E31F07E834
:100AF0001307301FE37BF7E8EFF03FA92320040042
:100B000069B501A0B707EFBE37E700E09387070894
:100B10003CC701A0C16769768146FD17050613979A
:100B2000060141836364B7003E8582803307D500A8
:100B30001823B98F214713F8170085836305080030
:100B4000B18FC207C1837D171377F70F6DF7850645
:100B5000F9B7EFF24FDCB7440140AA892E8901446E
:100B600093840480B38789008C232685EF00104688
:100B7000930500042685EF0070467DD90504931780
:100B80000401C183E3E027FF6FF02FDCEFF24FDABF
:100B9000239201842393018423810184A38F018202
:100BA0002380018411657971238F018285451105A8
:100BB00002CA02CC02CE02D002D202D402D602C6AF
:100BC00002C8A3800184EF00901C93070020FC82E0
:100BD00037140140E1473ECE4C088D471305048091
:100BE0003ECCEF00207593070040FC824C08930731
:100BF0008004130504803ECEEF00C073F1673744D4
:100C00000140938707203ED00C10B7070C00130556
:100C100004803ED402D223160102EF00102C1305EB
:100C2000048093050002EF00103C054693055052E6
:100C300013050480EF003036930750137C8668005C
:100C400085473EC823070100EF0070028545130564
:100C50000480EF00F03245616FF0CFCF01471DC532
:100C600003D641849387618496230147C206C182DB
:100C7000638EC6009623138741893697182318A1DF
:100C80009A2305071377F7079AA305473A858280C9
:100C9000239201842393018423810184A38F018201
:100CA00023800184238F0182A38001848280EFF25C
:100CB0002FC8ED774111938757A57C84C885C54718
:100CC0004C86280099455C85A3060100A1356887FC
:100CD000A1452800BD3D41016FF0CFC7EFF24FC5E0
:100CE000ED774111938757A57C82C9475C83C88300
:100CF00085474C8448009D45DC845085213DC8854E
:100D000021814886A5454800A93541016FF08FC46F
:100D1000EFF20FBF4111A307010019C9916BAA8916
:100D2000938B8B881384C1851305F100053F09E57A
:100D3000014541016FF08FC093862184982221469E
:100D40009C87938421846365E61C0A075E97184399
:100D5000028713075005E399E7FC1CA08547A38F82
:100D6000F18223800184238F0182A38001849CA0CF
:100D700065BF9306A00A1387F183639CD7001C23E9
:100D80009386170014A3A2971307A0FA98A3894784
:100D9000F9BF930650056396D7001CA085471CA396
:100DA00061B72380040023000700BDBF9386F18351
:100DB00098221306170022971CA390A28D4745BFC7
:100DC0009386F183238FF1829822130617002297CE
:100DD0001CA390A2914761BF9386F1839822A380C0
:100DE000F1841306170022971CA390A2954741B7E0
:100DF000130700039386F183637DF70083C5118495
:100E000003C5E18329462380040023800600F935C9
:100E100021BF98222380F1841306170022971CA378
:100E200093B7170090A2990799B71386F1831422FC
:100E300013871600A2969CA283C701841377F70F2D
:100E400018A2990793F7F70FE360F7EE9D4705B7F0
:100E50009386F18398221306170022971CA390A271
:100E6000A14731B7938C018483CD0C00138DF1839E
:100E700003470D00138A8D00137AFA0F9305EAFFDA
:100E8000C20513061700C181229722851CA3229A4E
:100E90002300CD00EFF01FC88347FAFF0347EAFFA6
:100EA000138A0184A207D98F6316F5041306400341
:100EB00081454E85EFF0CFAA3C202380F9003C30DD
:100EC000A380F9005C20A381B9012381F900638923
:100ED0000D006E869305640013854900EF100066CF
:100EE0009387F183238004002380070023000A00F6
:100EF000054581B583C5118403C5E1832546EFF01F
:100F0000FFDD2380040023000D0023800C0029BD99
:100F100023800600A38F01822380018431B5EFF284
:100F20002FA14111ED78938858A54881CC8150823A
:100F30007C8421469357080123150101B9451358B4
:100F400088010A8523101101D0825483D8835C86DE
:100F5000A3060101EFF01FBC6887C1450A85EFF0C9
:100F60005FBF41016FF00F9F411122C6374401401E
:100F70009305505213050480EF00B00739C51305DF
:100F80000480EF003005938741849E23938661841B
:100F90009222850793F7F7071375F50F138741849E
:100FA0006397C700922205061376F60792A21223D2
:100FB00093864189B29688A23745014093055052E5
:100FC000130505801EA3EF00900632444101730013
:100FD0002030EFF2EF951307400B41112A8493075D
:100FE00040FB6363A700AA8713F6F70F9307007D02
:100FF0003306F6029307400B370500401305054002
:101000003356F6021306461F42064182B28532C6A7
:10101000D925324637450000A28513058590EF108B
:10102000005D41016FF00F93EFF28F9037450000A4
:101030001305058FEF10E06C0145613F6FF08F9154
:10104000EFF20F8F374500001305C58AEF10606B74
:101050001305A005BD3F6FF0EF8FEFF26F8D797133
:101060008545154502CA02CC02CE02C402C6231829
:10107000010002D002D202D402D6112B85450945C7
:10108000352393070004FC8237150140E1473ECE2B
:101090004C088D47130505803ECC692C83A78180C1
:1010A00037470F0013070724B3D7E7023704004080
:1010B0002C001305044023150100FD177C8495675F
:1010C0009387F7E13EC61123C167938707063ED099
:1010D0000C109307401F130504402313F10223143F
:1010E0000102A92313050440A145F92B130504406F
:1010F0008545752B130504408545712B9137374580
:1011000000009305A0051305458CEF10404E456186
:101110006FF04F84EFF2CF810545B92609221527DC
:10112000716513050520EF00E07AEFF08FF9EFF01D
:101130000FFEF5BFB71702409843B706FFF0411105
:101140001367170098C3D84337060200758FD8C3BA
:101150009843B706F7FEFD16758F98C39843B706F8
:10116000FCFFFD16758F98C3D843B70601FFFD1627
:10117000758FD8C337079F0098C702C402C698432B
:10118000C166558F98C3B716024005679C42F18F20
:101190003EC6A24785073EC4B24781E7A247E39710
:1011A000E7FEB71702409C431397E7006357070613
:1011B00085473EC632478547631FF704B71702408D
:1011C000D843B706C1FFFD16D8C3D843D8C3D84308
:1011D00013670740D8C3D843758FD8C3D843B70621
:1011E0002900558FD8C39843B7060001558F98C37F
:1011F000984393166700E3DD06FED843B716024016
:10120000719BD8C3D84313672700D8C32147DC425A
:10121000B18BE39EE7FE4101828002C661BFB71633
:101220000240DC421146B18B138781806385C70081
:1012300021466388C702B7177A00938707201CC32B
:10124000B7170240DC43918393F6F700B7070020FD
:1012500093870700B69794231C43B3D7D7001CC3CA
:101260008280DC42D4424166C983BD8BF18E8907FE
:1012700045466393C700C94781EEB746024083A63F
:101280000680C18A89CEB7167A009386062021A8E7
:10129000B7160240D4421396E600E35606FEB71690
:1012A0003D0093860690B387D70251BF01A097F106
:1012B000FF1F9381215D174100201301A1D4173531
:1012C00000001305258997F5FF1F9385A5D3138685
:1012D000018263FAC5008322050023A05500110591
:1012E0009105E3EAC5FE13850182938581916377B9
:1012F000B500232005001105E36DB5FEFD42739096
:1013000002BC8D4273904280930280087390023039
:1013100097F2FFFF938242CF93E2320073905230F4
:10132000EFF05FE197020000938202DF73901234C6
:10133000730020309C4513F7070113F8F70001C72D
:10134000D8413368E80037270240145B3707000FA5
:10135000758F4DEB85462384D18437170140631583
:10136000E5009A2135839AA18E2113F7F50F39C331
:1013700018418146854E3D4F930F800293028004B1
:10138000214E3396DE00B3F8C5006311160393981F
:10139000260033131F011343F3FF3377E300B31821
:1013A000180133E7E8006397F70750C98506E39A09
:1013B000C6FD18C11307F00F6375B70454412146E9
:1013C000854E3D4F930F800293028004414EB398A7
:1013D000CE0033F715016392E802131726000117B8
:1013E0003313EF001343F3FFB376D3003317E80052
:1013F000D98E6395F703232A15010506E319C6FD67
:1014000054C1828037170140E310E5F603C7818499
:1014100021DF81BFE39C57F810C949BFE39F57FC08
:1014200023281501D9BFB71701406316F50083C7FC
:10143000818491C3B58108456D8D3335A0008280CC
:10144000B71701406316F50083C7818491C3B58146
:101450000CC98280B71701406316F50083C78184E9
:1014600091C3B5814CC9828023A6A184828003A741
:10147000C184854714216310F7021C31639CE70285
:101480003C21960793E707F837E700E093F7F70F5B
:1014900036972300F740054793D756003317D700F8
:1014A000544189CE938707048A07B7E600E0B697D0
:1014B00098C38280EDF33C219607F9B7938707061E
:1014C000B7E600E08A07B69798C30F100000828045
:1014D000371702405C439146B18B6385D700A14624
:1014E0006382D706B7177A00938707201CC1371687
:1014F00002405C4237070020130707019183BD8B30
:10150000BA9794231C41B3D7D7005CC15442A1823F
:101510009D8ABA969422B3D6D70014C55442AD82A0
:101520009D8A36971823B3D7E7005CC558423983A4
:10153000937637001387C18036971823B3D7E70215
:101540001CC982805C435843C166C983BD8B758FBB
:101550008907C5466393D700C94701EF3747024063
:1015600003270780418B09CF37177A00130707201D
:1015700021A83717024058439316E700E3D606FE2A
:1015800037173D0013070790B387E70285B799C562
:10159000371702401C4F5D8D08CF8280B71702407D
:1015A000984F1345F5FF798D88CF828099C53717FD
:1015B00002405C4F5D8D48CF8280B7170240D84F04
:1015C0001345F5FF798DC8CF82801E213737014042
:1015D000130707C0C207C1836300E5023707004055
:1015E000630CE500130707406308E5003717004068
:1015F000130707806316E500BA2193F7F7F8D98F30
:10160000FA2193F7F7CFC207C183D98F1EA1DE213C
:101610005EB59E211EB5B7370140938707C063149E
:10162000F5009C251EB985475EA982801E31922156
:1016300003D82500C207C183F99BC207C1831EB12D
:101640001E3156211A2DC207C183420741831377E9
:10165000C7F8518F9225F59BC20633660601D18FDC
:1016600037360140130606C0C1826310C502B22599
:10167000DD9B03D8E500D18FD221ED9B93F6F6CF09
:10168000D18FD22533660601D18E56A11AADFA212B
:101690005AB91EB182801E2189C593E717001EA189
:1016A0008280C207C183F99BC207C183CDBF1E21BF
:1016B00089C593E707081EA18280C207C18393F7FB
:1016C000F7F7C207C183C5BF1E2DC207C183DD9BCB
:1016D000DD8D0EAD82804EB98280EFE27FA51A29A2
:1016E000F577FD17F98FFA2101112A84D98F1EA9E8
:1016F0009A25DE215625AE84D98FBA25D98F7D77DC
:101700001307379F758FD98F5EA55E29DA25C2072B
:10171000C18393F7F7CFD98F5EA96800EFF05FDB45
:10172000B7470140938707806316F404E247654595
:10173000B335F502904081460A063305F5022525AA
:10174000930640063357D502120793574700B387D5
:10175000F6021D8D93174500138527039307F06349
:1017600063FCA70013050701420541810AA4056136
:101770006FE05F9ED24765BF3355D502598DEDB7F7
:1017800091C55E250967D98F5EA582805A25F977B4
:10179000FD17F98FD5BF13F7F50F85471583B3955F
:1017A000B7006319F7009307C500984301CED98DA0
:1017B0008CC38280894693074501E318D7FE9307BF
:1017C0000501E5B793C5F5FFF98DDDB793F5F51F75
:1017D0004EA182804A211375F51F82800A216D8DEA
:1017E0003335A000828093C5F5FFC205C1810EA1EB
:1017F000828013F7F50F85461583B397B600631102
:10180000D7025A25F98F1A2101454207418381CB1E
:101810000545A181B315B5006D8F3335E000828099
:1018200089466314D7001A29F1BF5A29E1BFA18163
:101830008547B397B70093C7F7FFC207C1831EA1BF
:10184000828083A7818037177A0013070720B3D7D8
:10185000E70293F7F70F2389F1841307803EB387DC
:10186000E7022398F1848280B7F700E0D8438146ED
:10187000799BD8C303C721853306A70290CBD4CB6D
:1018800098431367070198C398431367170298C3D7
:10189000D843058B75DF9843799B98C38280B7F74F
:1018A00000E0D8438146799BD8C303D7018533062E
:1018B000A70290CBD4CB98431367070198C39843F2
:1018C0001367170298C3D843058B75DF9843799B3C
:1018D00098C38280EFE2DF852A8411650111854576
:1018E0001105EFF0DFCA930700207C823715014015
:1018F0008D473EC44C00E147130505803EC6EFF01E
:101900007FA322C837440140B70708000C0813051D
:1019100004803ECC02CA231E0100EFF01FDC854587
:1019200013050480EFF0DFE505616FE0BF82EFE2B1
:101930008FFEB7440140AE8932890144938404800C
:10194000634524014A856FE05F8093050004268586
:10195000EFF0DFE87DD9B38789008385070026850E
:101960000504C205C181EFF07FE6D9BF138701816D
:101970001C43938681913E95636BD500B75600203A
:101980009386068063E5A60008C33E858280FD57E6
:10199000EDBF014863C5050E63DB06003306C0409A
:1019A000B337C000B306D0401348F8FF9D8EB6870A
:1019B0003283AA8EAE88639F061663FBC50C41670F
:1019C000636FE61CB70700016363F6369356860122
:1019D000E14717270000130727FE36971823BA9709
:1019E000130700021D8F19CBB395E500B357F5001F
:1019F0003313E600B3E8B700B31EE5001356030146
:101A0000B3D7C80293160301C18213D70E01B3F5F1
:101A1000C8023385F602C205B3E8E50063FAA80000
:101A20009A981387F7FF63E4680063E8A832BA87DF
:101A3000B388A840B3D5C802C20E93DE0E01B3F836
:101A4000C802B386B602C208B3E8D80163FBD80067
:101A50009A981387F5FF63E56800F91563E3D800EA
:101A6000BA85139507014D8D81456309080033053B
:101A7000A040B337A000B305B0409D8D82803305F0
:101A8000A040B337A000B305B0409D8D7D5829B765
:101A900001E605433353D30241676369E30EB70799
:101AA0000001636AF32893568301E147172700007A
:101AB000130787F036971823BA97130700021D8F74
:101AC00065EB93180301B3866540135F030193D858
:101AD0000801854513D70E01B3D7E603B3F6E60335
:101AE00033861703C206558F637AC7001A97938609
:101AF000F7FF636467006365C726B687118FB35627
:101B0000E703C20E93DE0E013377E703B3881603B3
:101B100042073367D701637B17011A971386F6FFD5
:101B200063656700F91663631701B28613950701B1
:101B3000558D25BF63E1D504C16763E1F604B7079E
:101B4000000163E2F61E93D88601614797270000E3
:101B5000938787E6C69703C30700930700023A936B
:101B6000B3876740E9EB63ECB61C3335C50013451A
:101B700015008145DDBD81450145C5BD9307F00FC9
:101B800063F2D71C93D886002147C9B71307F00F1B
:101B90009A86E37D67F093568300A14701BF130740
:101BA000F00FB286E377C7E293568600A14715B5DA
:101BB0003313E30033D6F500135F0301335EE6030E
:101BC000B396E500B357F500DD8E9318030193D863
:101BD0000801B31EE50093D50601B377E60333870A
:101BE000C803C207CD8F63FBE7009A971306FEFF79
:101BF00063E3671663F1E716791E9A97998F33D6D8
:101C0000E703139706014183B3F7E7033385C8025F
:101C100093960701D98E63FBA6009A969307F6FF69
:101C200063E7661263F5A61279169A9693150E016C
:101C3000898ED18D45B533576600B396F600D98E9F
:101C4000B3D8650013DF0601B3DEE803139E060177
:101C500033536500135E0E01B395F500B365B30011
:101C600013D705013316F600B3F8E8033303DE0398
:101C7000C20833E7E800637B670036979388FEFF6E
:101C80006369D70C6377670CF91E36973307674093
:101C90003353E703C205C1813377E703B3086E020C
:101CA0004207D98D63FB1501B6951307F3FF63EE69
:101CB000D50863FC15097913B695C20E416FB3EED2
:101CC0006E001307FFFFB3F6EE0013D30E01718F02
:101CD0004182338EE602B3851541B386C60293581E
:101CE0000E013307E302BA96C6963306C30263F3C6
:101CF000E6007A9613D306011A9663E2C50263855D
:101D0000C5007685814595B341677D17F98EC2067A
:101D1000337EEE00B317F500F296E3F4D7FE138599
:101D2000FEFF814599B393D80601414705B5935607
:101D30000601C14779B993560301C14785BB814567
:101D4000054525B3B688014711B53A83BDB73E8630
:101D5000F1BDC68E25BF328E55B5F9179A98C9B90F
:101D6000F9171A9761BBB687B2882A832E88639BBE
:101D7000061463F8C50A4167636BE61AB7070001EA
:101D80006360F63493568601E14717270000130776
:101D9000A7C236971823BA97130700021D8F19CBD5
:101DA0003398E500B357F500B318E60033E80701B0
:101DB0003313E50013D608013355C8029396080182
:101DC000C182935703013377C802B385A602420745
:101DD0003368F700637AB80046989307F5FF6364A9
:101DE00018016365B8303E853308B8403357C802E0
:101DF0004203135303013378C802B386E602420854
:101E000033686800637BD80046989307F7FF6365E3
:101E1000180179176363D8003E874205598D8145C3
:101E2000828001E60547B358C702416763E8E80EC0
:101E3000B707000163EAF82893D68801E14717271E
:101E40000000130767B736971423BE969307000266
:101E5000958FFDE7939E08013387154113DF080135
:101E600093DE0E018545935703013355E70333771E
:101E7000E703B306D5034207D98F63FAD700C697A5
:101E80001307F5FF63E4170163E5D7263A85958FBD
:101E900033D7E703420313530301B3F7E703B30E4A
:101EA000D703C207B3E7670063FBD701C697930662
:101EB000F7FF63E51701791763E3D701368742051A
:101EC000598D828063E1D504C16763E1F604B707E9
:101ED000000163E3F61E13D78601614897270000CF
:101EE000938787ADBA979823130E00024297330E5B
:101EF000EE40631A0E0C63EDB61C3335C500134576
:101F00001500814582808145014582809307F00F4D
:101F100063F3D71C13D786002148C9B71307F00F06
:101F2000C686E37E17F193D68800A14709BF130741
:101F3000F00FB286E37BC7E493568600A147B1B5A4
:101F4000B398F80033D6D50013DF0801335EE603FB
:101F50003397F500B356D500558F939E080193DE55
:101F60000E013313F50093550701B376E603B387EB
:101F7000CE03C206CD8E63FBF600C6961306FEFFA7
:101F800063E4161763F2F616791EC6969D8E33D655
:101F9000E60393170701C183B3F6E6033385CE0248
:101FA000139706015D8F637BA70046979307F6FFA3
:101FB000636817136376A7127916469793150E0177
:101FC000098FD18D4DB5B357E600B396C601DD8EAE
:101FD00033D3E50013DF0601B357E303939E0601F5
:101FE00093DE0E013398C5013357E50033680701CE
:101FF000935808013316C6013373E303B385FE0219
:102000004203B368130163FBB800B6981387F7FF68
:1020100063EAD80C63F8B80CF917B698B388B840DF
:1020200033D7E803420813580801B3F8E8033383B1
:10203000EE02C208B3E5080163FB6500B69513081C
:10204000F7FF63EDD50863FB65087917B695C207FE
:10205000416FD98F1307FFFFB3F6E70093D807014D
:10206000718F4182B38EE602B3856540B386C602A6
:1020700013D80E013387E802BA96C2963386C80297
:1020800063F3E6007A9693D80601469663E2C502AA
:102090006385C5003E858145828041677D17F98E45
:1020A000C206B3FEEE003315C501F696E374D5FE05
:1020B0001385F7FF8145828013D70601414839BD5A
:1020C00093560601C147D1B193D60801C14785BBDC
:1020D0008145054582803687014809B5428785BF1D
:1020E0003E86E9BDBA871DBF328E4DB5791546983B
:1020F000E5B97915C69761BB3971935775014AD80F
:1021000056D25ECE931A95001359F50106DE22DCF5
:1021100026DA4ED652D45AD093F7F70F93DA9A00B4
:10212000CA8B638207121307F00F6384E7128E0ACB
:1021300037070004B3EAEA00138A17F80144014B99
:1021400093D775019394950093F7F70FA58093D9D2
:10215000F501FDC71307F00F6387E7028E0493872D
:1021600017F837070004D98C330AFA408146558C9A
:10217000171700001307477C0A043A941C403349A0
:102180003901BA978287130A1AF0F9E88946558C03
:10219000171700001307477E0A043A941C4033497E
:1021A0003901BA97828701491307F00FB70740003A
:1021B00013959700F25062549317770125817E0999
:1021C0005D8D33652501D2544259B259225A925A33
:1021D000025BF24B216182801307F00F8147C9BF78
:1021E000A68ACE8B368B89476309FB1A8D47E30C91
:1021F000FBFA85476308FB0A1307FA0713F91B006C
:102200006355E01293F77A0099C793F7FA00914665
:102210006383D700910A93974A0063D90700B707F1
:1022200000F8FD17B3FAFA0013070A089307E00F46
:10223000E3C4E7FA93976A00A5831377F70F8DBF7E
:10224000B1E48546A9B763940A021144014A054BDB
:10225000C5BD63990A002144130AF00F094BCDB59F
:102260008D4631B73144130AF00F0D4BD1BD568561
:102270002EC6B12C9307B5FFB39AFA009307A0F8C6
:10228000338AA7400144014BB2455DBD26858124B8
:102290001307B5FFB307AA00B394E400138A6707D6
:1022A0008146F1B513F91B000147814711B741661B
:1022B000139554007D1693570501698E63FA9A0AA7
:1022C000B3D5FA027D1AD68601473388C502B3F624
:1022D000F602C206558F637B07012A979386F5FFA6
:1022E0006368A70A6376070BF9152A973307074136
:1022F000B356F7023377F702B38AC6029317070182
:1023000063FB5701AA971387F6FF63E1A70863FFF2
:102310005707F916AA97C205B38A5741D58DB33A24
:102320005001B3EA5501CA8BC1BD8546998E11C7CC
:102330006D4601478147E34DD6E6130AEA09339A11
:102340004A01B3D7DA00B33A4001B3E7570113F7B4
:10235000770019C713F7F70091466303D700910779
:1023600013975700634807029A07A583014789B569
:1023700093D61A00B3D5F6021397FA014183338836
:10238000C502B1B7CE8B368B814AB1BDBA8661B773
:10239000B685A9BF0547814721BD13F91B00130767
:1023A000F00F814731B53706800013577501930749
:1023B000F6FF1377F70F9305E007B3F6A7009357DF
:1023C000F50163FCE5009305D00963FAE5003705E4
:1023D00000801345F5FF3E9582800145828093057C
:1023E0005009D18E63CDE500130660093307E6403E
:1023F00033D7E6003305E040F5F33A8582801307D2
:10240000A7F63397E600FDB7411106C622C426C2DF
:102410000DCD9357F54133C4A7001D8CAA842285A6
:102420007D209307E0093387A74093076009FD806B
:1024300063CCE702A1469377F70F63D5A600611539
:102440003314A4002604258021A08144814701443F
:10245000260413559400B2402244DE07FE045D8D2D
:10246000458D9244410182809307900963DDE70026
:102470009307B5019546B317F400898E3354D40001
:10248000B337F0005D8C954763D6A7009307B5FF7F
:102490003314F400B70600FCFD169377740033760E
:1024A000D40085C39377F4009145638CB70011067F
:1024B0009317560063D707009307F009758E33878B
:1024C000A7401314660025809377F70F51B7C167B3
:1024D000637CF5029307F00F1307000263EBA7007C
:1024E000971700009387474DAA9788233305A74085
:1024F00082802181971700009387074CAA97882331
:1025000061473305A7408280B7070001636DF5007E
:102510006181971700009387274AAA97882321474C
:102520003305A74082804181971700009387C748F1
:10253000AA97882341473305A7408280B3C7A500E7
:102540008D8B3307C50081E78D4763EDC700AA87F0
:10255000637EE508942185078505A38FD7FEE3EB0D
:10256000E7FE828093763500AA8789CA9421850781
:102570008505A38FD7FE93F63700C5BF9376C7FFB7
:10258000138606FE63F0C70683A3050083A24500F9
:1025900083AF850003AFC50083AE050103AE4501DF
:1025A00003A3850183A8C5019385450223A0770075
:1025B00003A8C5FF23A2570023A4F70123A6E70120
:1025C00023A8D70123AAC70123AC670023AE1701B4
:1025D0009387470223AE07FF75B790419107910596
:1025E00023AEC7FEE3EBD7FEE3E6E7F68280397160
:1025F0003EDA2ED232D436D63AD842DC46DE938743
:10260000418122CC804326CA06CEAA8409C41C4C30
:1026100099E32285FD290C4454102686228536C66E
:10262000EF009013F2406244D24421618280011194
:1026300026CA4AC806CE22CC4EC652C4AA842E89C7
:1026400001C51C4D91E3F1219C4C804499E3268502
:10265000C9219717000093872748631BF402C040E5
:102660005E24A18BB1C71C48A1C7FD59294A1C444F
:1026700083450900FD17B1E91CC463DD0706228606
:10268000A94526856920FD576308F502294535A02F
:1026900097170000938747466314F4008044C9B736
:1026A0009717000093874741E31CF4FAC0444DBFDD
:1026B000A2852685192A55D97D55F2406244D24417
:1026C0004249B249224A056182801CC4050963D788
:1026D0000700184C63CAE700638845011C40138754
:1026E000170018C08CA361B7228626850D20E31041
:1026F00035F9D9B71C401387170018C0294798A38C
:1027000071B793874181AA8588436FF05FF2011109
:1027100022CC26CA4AC806CE4EC6AA842E89328446
:1027200001C51C4D91E3F526971700009387C73A22
:102730006317F406C0401C4C1CC45E24A18BC1C3AB
:102740001C48B5CF1C4808409379F90F1379F90F4D
:102750001D8D5C486346F500A2852685692C25E51C
:102760001C440505FD171CC41C401387170018C026
:10277000238037015C486388A7005E24858B81CB6A
:10278000A9476316F900A2852685B5240DEDF24010
:1027900062444A85D2444249B24905618280971712
:1027A0000000938767356314F400804469B7971776
:1027B000000093876730E310F4F8C044ADBFA285F2
:1027C0002685212041D17D59D9B741119387418177
:1027D00026C2844322C44AC006C62A892E8489C4DC
:1027E0009C4C99E326853526971700009387C72EC2
:1027F000631BF402C0400317C40093170701C18391
:1028000093F68700ADEA93F6070195EEA5472320DE
:10281000F900136707045AA47D55B240224492443C
:10282000024941018280971700009387E72C6314C7
:10283000F4008044C9B7971700009387E727E31C8B
:10284000F4FAC0444DBF918B9DC34C5889C993077E
:1028500044046384F5004A85292B232A04025E245C
:102860002322040093F7B7FD5EA41C481CC05E241D
:1028700093E787005EA41C4899EB5E2413070020B1
:1028800093F707286385E700A2854A8591295E248E
:1028900013F717001DC35C4823240400B307F0405E
:1028A0001CCC1C480145B5FB8317C40013F707086F
:1028B0002DD793E707045EA485B7898B014791E381
:1028C000584818C4F9BFDE25011122CC26CA06CE0D
:1028D0004AC84EC613F78700AA842E8479EBD841E4
:1028E000634DE000B841634AE0000145F2406244B4
:1028F000D2444249B2490561828058547DD703A928
:1029000004009396370123A0040063DB0606704899
:102910005E24918B99C75C401D8E5C5899C33C40E6
:102920001D8E5C540C50814626858297FD575A2493
:10293000631DF5009440F54763E8D706B7074020CC
:102940008507B3D7D700858BA5C31C482322040075
:102950001CC09317370163D80700FD576314F500B7
:102960009C4091E368C84C5823A02401BDDD930727
:1029700044046384F5002685ED2E232A0402B5B7AE
:102980000C500146854626850297FD572A86E3119D
:10299000F5F89C40B5DF75476385E70059476393B9
:1029A000E70423A0240191B7136707045AA47D55B7
:1029B00035BF83A90501E38A09F203A905008D8BC0
:1029C00023A0350133093941014791E3D84918C49F
:1029D000E35D20F11C540C50CA864E8626858297F2
:1029E0006347A0005E2493E707045EA4C9B7AA99D1
:1029F0003309A940F1BF9C49A5C3011122CC06CEE1
:102A00002A8411C51C4D81E72EC62122B245971795
:102A100000009387670C639CF5004C408397C500CA
:102A20009DC722856244F24005616FF0DFE9971788
:102A300000009387670C6394F5000C44C5B79717A3
:102A4000000093876707E39BF5FC4C44C1BFF2404D
:102A5000624401450561828001458280411122C4A2
:102A600006C62A844EA572A5232005002322050050
:102A7000232405002322050623280500232A050018
:102A8000232C0500214681451305C505EFD04FEDE8
:102A900097170000938787B25CD097170000938741
:102AA000A7B41CD497170000938787B85CD49717F6
:102AB00000009387E7BA00D01CD8B24022444101FD
:102AC000828097050000938545F391AA411126C2A3
:102AD000130680069384F5FFB384C4024AC02E898E
:102AE00022C406C6938544070D2E2A8401CD2320D7
:102AF000050023222501310508C41386840681457B
:102B0000EFD00FE62285B2402244924402494101AF
:102B100082801C4DA5E7411106C622C4970700001C
:102B2000938767FA1CD5938781819C4323240504EE
:102B300023260504232805046314F50085471CCDCE
:102B40002A84352848C022851D2808C422850528E6
:102B500048C4484001469145EFF05FF008440546FF
:102B6000A545EFF0BFEF48440946C945EFF01FEF18
:102B700085471CCCB24022444101828082804111B1
:102B80009387818126C284434AC006C69C4C22C4D6
:102B90002A8981E72685EFF0DFF793848404804457
:102BA000DC40FD1763D607009C40B9CF8440C5BF09
:102BB0000317C40039E7C1778507232204062320C1
:102BC000040023220400232404005CC423280400FE
:102BD000232A0400232C0400214681451305C40543
:102BE000EFD00FD8232A0402232C04022324040448
:102BF000232604042285B240224492440249410122
:102C000082801304840671BF91454A85EFF01FEC62
:102C100088C049FDB1472320F9000144E1BF797123
:102C200022D44AD052CC56CA5AC85EC606D626D23C
:102C30004ECE2A8AAE8A130485040149054BFD5BFA
:102C400009ECB25022544A8592540259F249624A20
:102C5000D24A424BB24B45618280044483294400EE
:102C6000FD1963D409000040E1BFDE24637BFB0053
:102C70008397E40063877701A6855285829A33693A
:102C8000A90093848406E9BF1971A6DAAE848395FE
:102C9000E500A2DC86DE328463DB0500DE2423A0AF
:102CA000060093F7070885E7930700401DA030084A
:102CB00036C6EF007020B246E34205FE7247BD679C
:102CC000F98F7977BA9793B717009CC2F1BF930732
:102CD00000041CC0F6506654D65401450961828038
:102CE000DE25011122CC06CE26CA4AC8898B2E8445
:102CF00089CF930774041CC01CC885475CC8F24088
:102D00006244D24442490561828074003000AA8442
:102D1000EFF09FF7A2452A892685012219E983173A
:102D2000C40013F7072061FFF19B93E727005EA41F
:102D3000C9B797070000938707D99CD45E2408C0C1
:102D400008C893E707085EA4A2475CC8B24781CFD2
:102D50008315E4002685EF00D01811C55E24F19B91
:102D600093E717005EA45E243369F900231624015B
:102D700079B7DDC183A7C5FF411122C406C626C2AB
:102D80001384C5FF63D307003E94AA84EF00301C70
:102D9000938741859C4381EF2322040023AA8184E9
:102DA0002244B2402685924441016F00701A637E2E
:102DB000F40014403307D4006396E7009843DC43E3
:102DC000369718C05CC0D9BFBA87D84319C3E37D12
:102DD000E4FE94433386D700631F86001040B2960A
:102DE00094C33386D700E31DC7FA10435843B29605
:102DF00094C3D8C375B76375C400B1479CC04DB7C1
:102E00001040B306C4006316D70014435843B2966B
:102E100014C058C0C0C369B78280011126CA938408
:102E20003500F19806CE22CC4AC84EC6A104B1475F
:102E300063F3F404B14463E2B4042A89EF0030116F
:102E40009387418598433A8439E0938781859C43F1
:102E500091E781454A85252F23ACA184A6854A8523
:102E60003D27FD5963193507B1472320F9004A85ED
:102E7000EF00100E29A0E3D004FCB1471CC10145AE
:102E8000F2406244D2444249B249056182801C400A
:102E9000858F63CF0702AD4663F6F6001CC03E94F3
:102EA00004C031A05C406313870223AAF1844A85E1
:102EB000EF00100A1305B40093074400619933072B
:102EC000F5405DDF3A94898F1CC05DBF5CC3C5B718
:102ED0002287404095BF130435007198E30285FCBA
:102EE000B305A4404A856525E31C35FBB5BF1C46E8
:102EF000FD171CC663DA0700184E63C5E700A94733
:102F00006394F5006FF0BF801C422E851387170075
:102F100018C28CA38280011122CC26CA4AC84EC690
:102F200052C406CE2A89AE893284B304D6007D5AB3
:102F300063149400014509A80C204E864A85EFF0E1
:102F40001FFB0504E31645FFF2406244D2444249A8
:102F5000B249224A05618280357122CD26CB4AC909
:102F60004EC706CF52C556C35AC1DEDEE2DCE6DAF2
:102F7000AA89AE843289368409C51C4D99E3EFF0E5
:102F80005FB997170000938727B56398F40C83A463
:102F90004900DE24A18BE5C79C48F5C393070002D6
:102FA000A304F1029307000302D22305F10222C613
:102FB000930B5002971A0000938A0AB6054C294BCE
:102FC0004A841C2099C3639F770DB30C2441638E00
:102FD0000C00E6864A86A6854E85EFF0DFF3FD57A6
:102FE000630FF51C9256E69636D21C206389071CA7
:102FF000FD571309140002C802CE3ECA02CCA30931
:10300000010482D483450900154656852D271304F3
:103010001900C24751E913F7070109C71307000256
:10302000A309E10413F7870009C71307B002A30936
:10303000E104834609001307A002638FE606F24706
:103040004A8481462546182093051400130707FD7E
:103050006377E60AB5CA3ECE85A897170000938726
:10306000A7A96395F40083A4890025B797170000EA
:10307000938787A4E39FF4F083A4C90019BFA685B2
:103080004E85EFF08FF419D97D55FA406A44DA4441
:103090004A49BA492A4A9A4A0A4BF65B665CD65CA8
:1030A0000D618280050431BF330555413315AC00F5
:1030B000C98F3EC82289B9B73247930647001843E3
:1030C00036C6634707023ACE18209307E002631D15
:1030D000F70418309307A002631BF702B2470904F4
:1030E000138747009C433AC663C107023ECA2DA816
:1030F0003307E04093E727003ACE3EC8F1B7B387E5
:10310000670385462E84BA973DBFFD57C5B70504B2
:1031100002CA8146814725461820930514001307EB
:1031200007FD6374E606F9F20C200D461715000042
:103130001305059F092511CD971700009387479E1A
:103140001D8D93070004B397A700424505045D8DCC
:103150002AC80C201946171500001305A59C130951
:1031600014002304B102C12B35C197D7FFFF938709
:1031700067E995E74247B2471377071009CF9107F0
:103180003EC69257D2973ED225BDB3876703854688
:103190002E84BA9751B79D07E19BA107D5B7780058
:1031A00097060000938666D726860C084E85970002
:1031B0000000E7000000FD572A8AE314F5FCDE2436
:1031C00093F70704E39207EC1255C1B57800970610
:1031D0000000938686D426860C084E85012AE1BF1E
:1031E000797156CA9C49BA8A984522D426D24ECEC5
:1031F00052CC06D64AD05AC85EC6AA892E84B2845A
:10320000368A63D3E700BA879CC00347340419C3E6
:1032100085079CC01C4093F7070281C79C40890723
:103220009CC00329040013796900631A0900130B79
:103230009401FD5B5C449840998F634CF9041C40F9
:103240008346340493F70702B336D000A5EB130688
:103250003404D2854E85829AFD576303F5041C40E1
:1032600011469840998B544481446397C700B384B6
:10327000E64063D3040081441C4418486354F700BB
:10328000998FBE94014969047D5B639824050145CB
:1032900009A885465A86D2854E85829A631E750195
:1032A0007D55B250225492540259F249624AD24A90
:1032B000424BB24B456182800509ADBF3307D40054
:1032C00013060003A301C7040347540493871600A1
:1032D000A2978906A381E7049DBF85462286D285F1
:1032E0004E85829AE30E65FB050945B7797122D4B4
:1032F00026D24AD04ECE06D652CC56CA5AC8B68925
:10330000942D930790063289AA842E84138635045F
:10331000638DF60263E2D706930780056386F6188D
:1033200063EDD700638E062093073004638EF60AA0
:10333000930A24042301D404C9A0930730066385AB
:10334000F60A93074006E395F6FE1C40084393F601
:10335000070893054500C5C61C410CC363D8070088
:103360001307D002B307F040A301E404970600005E
:103370009386C67B294765A8930700076382F616E4
:1033800063E5D7029307E0066389F6189307F00612
:10339000E390F6FA0C401C4313F805081385470028
:1033A0006307080608C39C4385A893075007E38377
:1033B000F6FE930780076389F61293073007E399B7
:1033C000F6F61C43D04181459386470014C383AA77
:1033D000070056858D2601C53305554148C05C4020
:1033E0001CC8A301040461A81C43930A2404938607
:1033F00047009C4314C32301F4048547D5B793F6D3
:1034000007041C410CC3B9DAC207C18781BF93F519
:10341000050408C3C9D99E231307F0066387E60E87
:1034200097060000938686702947A30104044C4048
:103430000CC463C5050008406D9908C099E3B28AC1
:1034400089CDB28AB3F5E702FD1AB6958C212380A7
:10345000BA00B3D5E70263F0E70CA147631EF7009B
:103460001C40858B91CB58401C4863C7E7009307ED
:103470000003A38FFAFEFD1A3306564110C84E878B
:10348000CA867000A2852685EFF09FD57D5A631D00
:10349000450B7D55B250225492540259F249624A6A
:1034A000D24A424B45618280A382D5049706000030
:1034B0009386C6670C40084313F805081C411105A4
:1034C000630D080208C313F7150001C793E5050251
:1034D0000CC04147B9FB0C4093F5F5FD0CC0B1B7EA
:1034E0009C4193E707029CC193078007A302F40461
:1034F000970600009386C66475BF13F8050408C3D9
:10350000E30308FCC207C1837DBF970600009386D2
:10351000E661214719BFAE8735B794411C43CC49BA
:1035200013F80608138547006306080008C39C4388
:103530008CC339A008C393F606049C43F5DA8EA326
:1035400023280400B28A25BF14485686CA852685DA
:103550008299E30045F51C40898B8DE7B2474844CA
:10356000E35AF5F23E853DB785465686CA852685DF
:103570008299E30065F3050A5C443247998FE3457D
:10358000FAFEE9BF014A930A94017D5BF5B7411148
:1035900022C42A842E8523AA019006C6EFE00FBD1F
:1035A000FD576317F500938741919C4391C31CC05D
:1035B000B240224441018280411122C42E8483956D
:1035C000E50006C67922634905007C48AA977CC8B5
:1035D000B2402244410182805E247D777D17F98FBD
:1035E0005EA4FDB7DE25011122CC26CA4AC84EC60C
:1035F00006CE93F70710AA842E843289B68991C724
:103600008395E5008946014609225E247D777D1772
:10361000F98F5EA48315E4006244F240CE864A86A8
:10362000B24942492685D244056125A8411122C4E8
:103630002E848395E50006C6C928FD575A24631ACF
:10364000F500FD77FD17F98F5EA4B24022444101D9
:1036500082808567D98F5EA468C8C5BF8395E50061
:1036600005A8411122C42A842E85B285368623AA54
:10367000019006C6EFE0AFABFD576317F5009387E7
:1036800041919C4391C31CC0B240224441018280BD
:10369000411122C42A842E8523AA019006C6C52082
:1036A000FD576317F500938741919C4391C31CC05C
:1036B000B240224441018280411122C42A842E85D5
:1036C000B28523AA019006C6C920FD576317F500ED
:1036D000938741919C4391C31CC0B2402244410155
:1036E0008280411122C42A842E8523AA019006C615
:1036F0005D20FD576317F500938741919C4391C36B
:103700001CC0B240224441018280411122C42A845B
:103710002E85B285368623AA019006C65920FD570C
:103720006317F500938741919C4391C31CC0B2403D
:1037300022444101828093F5F50F2A966314C50057
:10374000014582801C21E38EB7FE0505C5BF82803E
:103750008280411122C42A842E85B285368623AA0E
:10376000019006C6A920FD576317F5009387419184
:103770009C4391C31CC0B240224441018280930704
:10378000800523AAF1907D5582809307800523AAA6
:10379000F1907D5582809307800523AAF190014521
:1037A00082809307800523AAF1907D55828093073C
:1037B000800523AAF1907D5582800000485837315A
:1037C0003120526561642054696D656F7574210DF7
:1037D000000000004858373131205461726520469E
:1037E00061696C6564210D0048583731312054619E
:1037F000726520446F6E6521204F66667365742084
:103800003D202564202873616D706C653D25752908
:103810000D0A000050757368526F64204578746516
:103820006E64696E672E2E2E0D0000005075736851
:10383000526F642052657472616374696E672E2ED4
:103840002E0D000050757368526F642053746F70B2
:103850007065642E0D0000008209000090090000D0
:10386000D80A0000D80A0000D80A0000D80A0000D0
:103870003E0A0000540A0000720A0000B80A000064
:10388000CC0A0000980A0000520D0000720D0000E2
:10389000AC0D0000C00D0000D80D0000F00D0000C0
:1038A0002A0E0000500E0000640E0000496E6E6586
:1038B00072446F6F7220436C6F73696E672E2E2E89
:1038C0000D000000496E6E6572446F6F7220496E84
:1038D0006974204F4B2E2064656661756C7420639B
:1038E0006C6F736520616E676C653D25640D0A0021
:1038F000496E6E6572446F6F72204F70656E696EAF
:10390000672E2E2E0D000000496E6E6572446F6F9B
:103910007220416E676C65202D3E20256420646511
:10392000672C2070756C7365203D202564207573AD
:103930000D0A00007AE9FFFFA4E8FFFF74E9FFFF2A
:10394000ACE8FFFF74E9FFFF72E8FFFF74E9FFFFD7
:10395000ACE8FFFFA4E8FFFFA4E8FFFF72E8FFFF69
:10396000ACE8FFFFB2E8FFFFB2E8FFFFB2E8FFFFFD
:1039700072E8FFFF64E8FFFF64E8FFFF34E9FFFF40
:1039800010EAFFFF34E9FFFF32E8FFFF34E9FFFFF1
:1039900010EAFFFF64E8FFFF64E8FFFF32E8FFFF83
:1039A00010EAFFFF72E8FFFF72E8FFFF72E8FFFF17
:1039B00032E8FFFF000102020303030304040404CE
:1039C00004040404050505050505050505050505AB
:1039D000050505050606060606060606060606068B
:1039E0000606060606060606060606060606060677
:1039F000060606060707070707070707070707075B
:103A00000707070707070707070707070707070746
:103A10000707070707070707070707070707070736
:103A20000707070707070707070707070707070726
:103A3000070707070808080808080808080808080A
:103A400008080808080808080808080808080808F6
:103A500008080808080808080808080808080808E6
:103A600008080808080808080808080808080808D6
:103A700008080808080808080808080808080808C6
:103A800008080808080808080808080808080808B6
:103A900008080808080808080808080808080808A6
:103AA0000808080808080808080808080808080896
:103AB00008080808000000000000000000000000E6
:103AC00000000000000000000000000000000000F6
:103AD00000000000000000000000000000000000E6
:103AE00000000000000000000000000000000000D6
:103AF00000000000000000000000000000000000C6
:103B000000000000000000000000000000000000B5
:103B100000000000232D302B20000000686C4C00BA
:103B200065666745464700003031323334353637F5
:103B300038394142434445460000000030313233B9
:103B400034353637383961626364656600000000D9
:103B5000000000000000000001020304060708093D
:103B60000000000001020304010203040607080923
:103B700000000000D43A0000F43A0000B43A00001B
:103B80000000000000000000000000000000000035
:103B90000000000000000000000000000000000025
:103BA0000000000000000000000000000000000015
:103BB0000000000000000000000000000000000005
:103BC00000000000000000000000000000000000F5
:103BD0000080D5430100000000D8B80502040608A3
:103BE000980100202000002020000020000000009C
:00000001FF
