:040000006F10100D60
:100004000000000000000000620F0000640F000008
:1000140000000000CE1800000000000000000000F6
:10002400CE180000CE180000000000000000000000
:10003400CE18000000000000CE18000000000000F0
:10004400CE180000CE180000CE180000CE18000014
:10005400CE180000CE180000CE180000CE18000004
:10006400CE180000CE180000CE180000CE180000F4
:10007400CE180000CE180000CE180000CE180000E4
:10008400CE180000CE180000CE180000CE180000D4
:10009400CE180000CE180000CE180000CE180000C4
:1000A400CE180000CE180000CE180000CE180000B4
:1000B400CE180000CE180000CE180000CE180000A4
:1000C400CE180000CE180000CE180000CE18000094
:1000D400CE18000084150000CE180000CE180000D1
:1000E400CE180000CE180000CE180000CE18000074
:0C00F400CE180000CE180000CE1800004E
:10010000397101436EC619A0397141536AC866CA74
:1001100062CC5ECE19A0397101535AD056D252D456
:100120004ED64AD826DA22DC06DE330161408282CE
:1001300041114AC026C222C406C68282B24D410184
:10014000024D924C224CB24B4101024B924A224A40
:10015000B2494101024992442244B24041018280A5
:100160003D432A876373C3029377F700BDEFADE584
:10017000937606FF3D8ABA960CC34CC30CC74CC796
:100180004107E36BD7FE11E28280B306C3408A06C3
:100190009702000096966780A6002307B700A30683
:1001A000B7002306B700A305B7002305B700A304D3
:1001B000B7002304B700A303B7002303B700A302CB
:1001C000B7002302B700A301B7002301B700A300C3
:1001D000B7002300B700828093F5F50F9396850052
:1001E000D58D93960501D58D61B79396270097021B
:1001F000000096968682E78086FA9680C1171D8F4A
:100200003E96E374C3F8A5B7EFF2FFF0B7140140D0
:10021000138504C0930500408569EF10D00561493E
:100220000144938404C09389098093050040268586
:10023000EF1030030545EF1050459305004026852B
:10024000EF107003CE852685EF1010008547060459
:100250006313F50005047D1905451379F90FEF10B7
:10026000D042E31409FCB714014093050040138504
:1002700004C0EF10007F0545EF10304193050040AA
:10028000138504C0EF10207F0545EF101040931731
:10029000840063D60700370500FF418D7DB5131537
:1002A00084002181E5BFEFF2BFE84111854521457A
:1002B00002C202C402C6EF10B00F93070040371409
:1002C00001407C82C1473EC64C008D47130504C0E7
:1002D0003EC4EF1040688567938707807C824C009E
:1002E00093078004130504C03EC6EF10C066930553
:1002F0000040130504C0EF1000784101A1BDEFF2EA
:100300003FE385653715014093850580130505C0DA
:10031000EF1080731335150035BDEFF27FE12A84AD
:1003200019E0014505BDE13F7D1409E50545EF10E4
:100330003039FDB70545FDB7EFF29FDF1305C01259
:10034000E93F11E93745000013050526EF20901D10
:1003500003A5018201B54D3DF5BFEFF2DFDB314969
:10036000014481498144214A130520037D3709CD89
:10037000613D9355F5414E95B3373501AE94050473
:10038000AA89BE941374F40F7D1929451379F90FC6
:10039000EF10103363060902E31844FD22868146FC
:1003A0004E85A685EF101041AA8523A0A18237456E
:1003B000000022861305C528EF209005054401A8FA
:1003C00071FC3745000013058527EF20B015228505
:1003D000ADBBEFF2FFD58D3783A701823385A740F0
:1003E000EF20A064B707002083A50708EF20E032C4
:1003F000EF20805D85B3EFF2BFD3411185451145F4
:1004000002C202C402C6EF10A07A93070003371499
:1004100001407C82C1473EC64C008D4713050480D5
:100420003EC4EF1040539305000313050480EF1002
:100430008064410105B3EFF2BFCF374500001305DB
:10044000852BEF20300E3714014013050480C14581
:10045000EF1020619305000213050480EF10A061E6
:10046000D5B9EFF2FFCC374500001305052DEF207D
:10047000700B3714014013050480C145EF10A05FD5
:100480009305000213050480EF10A05DE1B1EFF2C7
:100490003FCA374500001305852EEF20B0083715F9
:1004A00001409305000313050580EF10C05C5DB1AA
:1004B000EFF21FC837150140854513050580EF1081
:1004C000805B49B9EFF2DFC637150140854513055A
:1004D0000580EF100059BDB9EFF29FC54111854568
:1004E000114502C202C402C6EF10806C9D4737144A
:1004F00001407C82C1474C00130504803EC68D47F5
:100500003EC4EF1040457D3F130504808945EF1040
:100510008056914513050480EF10E05541011DB947
:10052000EFF21FC1914501E9371501401305058020
:10053000EF10205305B13715014013050580EF106A
:100540008053CDBF83C74182094589E703C54183F5
:100550001335150083C7C18399C31365050803A725
:100560008183CD4763D4E700136505048280854706
:100570002382F182238E0182238A018283A6018451
:1005800023A4D1822386F1828280EFF27FBA0137E1
:10059000153FC9B6EFF2DFB94111AA8436879DC570
:1005A0009421AE8785C68C31A0233AC632C42EC2B0
:1005B000513F224603A8818332479245AA87B286DB
:1005C00026852286EF00D074410169B68145014439
:1005D000E9BFEFF2FFB51C2179712E8491C72E86F9
:1005E0002C210831EF00B04091650A049385053E47
:1005F000A2959441374600001306864A930580026F
:100600002800EF20E0722800EF007038456199B6AD
:10061000EFF21FB29D3FEF00D0312382018223868B
:1006200001820DBEEFF2DFB003C7418303A88183CF
:100630004111938741801DE7094798A342C41937A8
:100640002248AA87014713053002894601468145A1
:10065000EF00106C374500001305C549EF00D0319D
:100660004101CDBCB94642C63AC494A3E13D3248EB
:100670002247AA87B9460146814513053002EF009B
:100680003069F9BFEFF2DFAA1384D1821C2005453F
:1006900081EFE13111C93745000085471305C54099
:1006A0001CA0EF00702D054575B4EFF27FA81C214A
:1006B0002A8495C72C210831EF0030301C302547A3
:1006C000FD1793F7F70F636BF70011671307C7392F
:1006D000BA970385070019C1EF001028A5BC0305D0
:1006E0003500D5BFEFF2DFA4138501847D3F9DB4B3
:1006F000EFF21FA48D4401490144E1399355F541BE
:10070000FD144A95B33725012E942A8993F4F40FEA
:1007100051453E94EF10C07AEDF00D4681464A8572
:10072000A285EF10300923ACA1826FF0BFA2EFF2D7
:100730003FA083C7C1821D712A84AE84A1CB93855B
:100740008182238A818239472382E1801305200236
:10075000A286394623820182353D8387040026859F
:100760008DE311650A041305053E229514413746B1
:1007700000001306864A930500060A85EF20405BB9
:100780000A85EF00D02025616FF0DF9C93850184FE
:100790004DBFEFF2FF997971AA84013FE53509ED6C
:1007A000B745000015479385054C1545238AE1821E
:1007B000BD3F45616FF01F9A253F03C641801384FA
:1007C000818308C0A685814613050002E1331440E9
:1007D000374600001306064D930500030A85EF20F7
:1007E00020550A85EF005019E9B7EFF27F945D714B
:1007F0002AC6653D1384418083C641831020B245DB
:1008000013050002413B1C203547FD1793F7F70FF6
:100810006367F70211678A071307873ABA97944309
:10082000374600001306464B930500040808EF20E6
:1008300020500808EF00501461616FF0BF91B74677
:1008400000009386C64AE9BFEFF29F8E83C7C1823C
:100850001D712E86ADC3938781822382C1801307C9
:1008600046FF1377F70F854663E4E600238ED182B7
:100870001304F6FF1374F40F854663F4860063E4F3
:10088000E60023820182BE858146293391679387E2
:10089000873A0A043E941440374600001306464B3C
:1008A000930500060A85EF20A0480A85EF00D00CCA
:1008B00025616FF03F8A9387018445B7EFF2BF85CA
:1008C0003971130430059304700513099004B74976
:1008D0000000414AA14A2800EF00901425C59C85DC
:1008E000148418855C838307D1035482D882DC8307
:1008F000A5C69C84E39147FF63095705A547630894
:10090000F7009D476316F7044800C535E9B748006E
:10091000693BA5392382018223860182238A0182D1
:10092000238E01820547814605464C0013051002BF
:100930002382E18085313745000013058543EF00B0
:10094000B003054521616FF05F804800993561B7BC
:100950009D454800BD3941B7638B8700E38797FE0B
:10096000E38427FB13850944EF007002ADB748000C
:100970002D3B21392382018223860182238A018231
:10098000854513051002238E01827D3D6DB7EFF280
:100990008FF8AA89A944014415372A8919EDB3872C
:1009A000894063F39700BE8426852694EF1040515A
:1009B000E36434FF4A856FF04FF90549E5BFEFF274
:1009C0002FF71305100295454135EFF0DFA60565B9
:1009D000130585A26D3F11C5EFF07FAB01456FF0A8
:1009E0006FF7EFF0DFAA994513051002B13D3745C7
:1009F00000001305055EEF0020780545CDB7EFF246
:100A00002FF313051002A5458135EFF09FA505656D
:100A1000130585A2AD3F11C5EFF07FA701456FF02B
:100A20006FF3EFF0DFA6A94513051002313D3745FE
:100A300000001305055FEF0020740545CDB7EFF208
:100A40008FED41112AC6EFF0BFA63245B714014021
:100A50004969EFF0FFAC0144938404809309800C52
:100A60001309894F89452685EF00B07F130540069D
:100A7000EF10A04189452685EF00F07F1305400661
:100A8000EF10A040B377340389EB0D3D19C5EFF0AB
:100A90007FA3054541016FF04FEB0504E31424FDEE
:100AA000EFF05FA20145FDB7EFF28FE8AD4513050A
:100AB0001002593B05456137814701E93745000080
:100AC00013058541EF00406B85473E856FF08FE849
:100AD000EFF20FE68D4513051002BD330145853752
:100AE000814701ED914513051002B93B37450000E0
:100AF00013058542EF00406885473E856FF08FE51E
:100B0000EFF28FE07971EFF0FFB709EDB745000024
:100B10002A849385054C1545EFF07FC122854561F8
:100B20006FF00FE23745000013058544EF00C06405
:100B3000453719E10144DDB759356DDD9D45130594
:100B4000000219331309B0048144374B0000938924
:100B50000184138A81829D3371FDEFF07FB9AA86EB
:100B60009305000323ACA18213060B4D0A85EF20E9
:100B7000201C0A85EF00006383C7C1821384818330
:100B8000CE8591C3D28581461D4613053002EFF014
:100B90007FA01840CD4763D0E706850493F4F40F97
:100BA000894763FB9704A145130510027139374546
:100BB000000013054545EF00205C913525DDED353E
:100BC00035D9B14513051002EFF01FC8EF0090278B
:100BD0003745000013050548EF00005AB5451305D9
:100BE0001002EFF07FC63745000013050549EF00FE
:100BF000A058054425B781441305800C493B2A843D
:100C0000E31A05F27D19E31809F4D53BE30405F274
:100C1000613DE30105F23147374500002382E18061
:100C2000130505460547238EE182EF00E054B745E2
:100C30000000938505470545C5B5EFF26FCFE52662
:100C4000EFF09F89EFF02FFBEFF0EFE5EF00F022E0
:100C5000EFF0BF93EF00B020A38601820947238203
:100C600001822382E180238A0182238E018223ACC8
:100C7000018223A8018223A0018423A40182238668
:100C80000182EFF03F9A6FF0EFCCEFF26FCA19716B
:100C9000A8007923138401836302052A8347B104E2
:100CA00093860184834581040347A104BCA2830782
:100CB000D107232004008CA298B2BCB23285638A8B
:100CC000051083469104C1476391F60683C64182AD
:100CD0001384418281CE930797FF894663F8F6001B
:100CE0009D4513850184EFF0DF8E81A07D1713777A
:100CF000F70FA54763EBE70C91679387C72F0A07A8
:100D00003E971C438287EFF0FF9DEFF0BF9131A823
:100D1000EFF0FF85EFF01F9DE53331A0EFF03F8549
:100D2000EFF05F9C7533EFF0BF8E09616FF08FC2FB
:100D3000EFF0FF83EFF01F9B853B75D5B1451305A1
:100D40001002EFF07FB0C5B7EFF07F82EFF09F9910
:100D5000EFF0FFC6C9BFEFF09F81EFF0BF98EFF053
:100D60001FCAD1B713850184EFF03FA87DBF13855B
:100D70000184EFF01FA255BFEFF0DF96EFF0FF8088
:100D800023860182238A01821305100285452300F0
:100D90000400238E0182EFF03FAB374500001305BE
:100DA000854315A0EFF01F94238A0182238E0182D0
:100DB00013051002894523860182EFF0FFA837450D
:100DC0000000130505384D2E8DB7A145138501840C
:100DD00019BF83C64182138441829387F7FB85C67E
:100DE00093F6F70F45476360D70205473317D700DF
:100DF000B7460200D506758F19C7374500001305A1
:100E0000054471261DB793F7F70F5947636EF71026
:100E100011678A0713074732BA979C4382871305E5
:100E200000051D2EDDB5EFF08FF4130510042D26FF
:100E3000E5B5EFF0CFF31305F004392EE5B5EFF08B
:100E40000FF313053004092EC5BDEFF04FF2130563
:100E500050041926F5BDEFF08FF113052005ED2C98
:100E6000FDBD13059004CD2C83C74180B546138486
:100E70004180FD1793F7F70F63ECF60211678A07BD
:100E80001307873ABA978843C52C03C741831420B8
:100E90003AC436C6EFF00FEB2247B24603A881836F
:100EA0000146AA879D4513050002EF006066B5BDA7
:100EB000374500001305C54AC1BF1305B004692CAE
:100EC000E5B513057005492CEFF0CFFB09E9B745EF
:100ED00000009385054C1545EFF07F85B9B5EFF01F
:100EE0003F811384818337460000AA861306064D8E
:100EF0009305000308C02808EF1090632808AD2C64
:100F000083C6418036C4EFF0EFE303280400AA87CC
:100F10000147A2460146A14579B7130530052D2C9E
:100F2000EFF0AFE63924A9BD3745000013050539B8
:100F3000B92C2146814501455D2CC5BB2945EF00F3
:100F400030781C4003C74182A9071CC0E31F07DC9F
:100F50001307301FE37BF7DCEFF0CFEC2320040016
:100F6000E9B301A0B707EFBE37E700E093870708B2
:100F70003CC701A0C16769768146FD170506139736
:100F8000060141836364B7003E8582803307D50044
:100F90001823B98F214713F81700858363050800CC
:100FA000B18FC207C1837D171377F70F6DF78506E1
:100FB000F9B7EFF24F96B7440140AA892E89014450
:100FC0009384048093170401C18363E427016FF0C5
:100FD000CF97B38789008C232685EF005061930556
:100FE00000042685EF00B0617DD90504E1BFEFF272
:100FF0002F942E84AA84EF10705A93150501C18195
:101000002685453F09C82285EF10505993150501E3
:10101000C1812285793F3745000089451305452B5D
:10102000493F6FF02F93EFF2AF90239601842397FF
:101030000184A38201842382018423850184A38304
:10104000018423840184116579712383018485459A
:10105000110502CA02CC02CE02D002D202D402D6BC
:1010600002C602C8A3840184EF00903493070020D5
:10107000FC8237140140E1473ECE4C088D471305F2
:1010800004803ECCEF00300D93070040FC824C08FA
:1010900093078004130504803ECEEF00D00BF16768
:1010A00037440140938707203ED00C10B7070C004F
:1010B000130504803ED402D223160102EF0010442F
:1010C0001305048093050002EF00105405469305B4
:1010D000505213050480EF00304E930750137C8666
:1010E000680085473EC823070100EF00701A854558
:1010F00013050480EF00F04A45616FF0AF850147AA
:101100001DC503D6C1849387E18496230147C20697
:10111000C182638EC60096231387418A36971823AF
:1011200018A19A2305071377F7079AA305473A856D
:1011300082802396018423970184A38201842382E1
:10114000018423850184A383018423840184238370
:101150000184A38401848280EFE29FFD41114880D5
:10116000374500008A8513050563A3000100EFF0F1
:101170001FE841016FE01FFEEFE29FFBAA853745A4
:10118000000013058564EFF09FE66FE0BFFCEFE21F
:101190003FFAAA853745000013050564EFF03FE5E7
:1011A0006FE05FFBEFE2DFF8AA853745000013052B
:1011B0008563EFF0DFE36FE0FFF9EFE27FF74111C6
:1011C000B7B70111938757A54884CC8448009D4543
:1011D0003EC223050100EFF0FFD9C8852181488672
:1011E000A5454800EFF0FFDC41016FE0BFF6EFE2FC
:1011F0003FF4B7B701124111938757A53EC2488407
:101200008547CC844800A1455C85D085EFF09FD60A
:101210006886A9454800EFF0DFD941016FE09FF3F0
:10122000EFE21FEE4111A307010001CD116BAA8966
:10123000130B0B60138441861305F100EFF03FECB4
:1012400009E5014541016FE07FEF9386A184982273
:1012500025469C871389A184636EE6220A075A9764
:101260001843028713075005639EE70005471CA03B
:101270002300E900A383E184238401842383018480
:10128000A38401840306F100B547E307F6FA138946
:1012900051848345090085469377F60F138751845F
:1012A0006388D520638F051E094693844184638734
:1012B000C5222300090091AC9306A00A138771840C
:1012C000639ED7001C239386170014A3A2971307CD
:1012D000A0FA98A389472300F9006DB7930650053B
:1012E0006396D7001CA085471CA369BF2300090093
:1012F000A383018441BF0547E39AE7FE9386718487
:1013000098221306170022971CA390A28D47E1B7DD
:101310009386718498221306170022971CA390A22B
:10132000914755BF938671842383F18498221306D5
:10133000170022971CA390A2954771BF93867184D2
:101340009822A384F1841306170022971CA390A26D
:10135000994751B713070003938671846374F702AA
:1013600003C5618483C59184294623000900238035
:101370000600EFF0DFE73745000013058562EFF068
:101380001FE109B798222384F184130617002297DE
:1013900090A21CA399E3A1473DBF9D472DBF138693
:1013A0007184142213871600A2969CA283C781849D
:1013B0001377F70F18A29D0793F7F70FE37DF7FC5C
:1013C000D1B59386718498221306170022971CA327
:1013D00090A2A54709B7938C818483CD0C00138D0F
:1013E000718403470D00138A9D00137AFA0F930549
:1013F000EAFFC20513061700C181229722851CA3AC
:10140000229A2300CD00EFF0FFB68347FAFF03478F
:10141000EAFF138A8184A207D98F6319F5041306A2
:10142000600381454E85EFE0BFD385472380F900F7
:101430003C30A380F9005C202381F9005C302382DA
:10144000B901A381F90063890D006E8693057400CC
:1014500013855900EF10A070938771842300090051
:101460002380070023000A000545E9BB03C561840A
:1014700083C591842546EFF09FD7374500001305BB
:101480000551EFF0DFD02300090023000D00238079
:101490000C00CDBB23800600A38301842384018438
:1014A000D5B313070004E399E7D82300D90069B343
:1014B0009386F7FB93F6F60FE54563E8D5002382A4
:1014C000C18489472300F90085BB93060004E385A6
:1014D000D7D62300070023820184B9BB2946639035
:1014E000C7021306600381454E85EFE07FC79C204D
:1014F0002300090023800400A38AF902B5B713066C
:101500000004E398C7FC2300D900238004002DB316
:10151000EFE21FC20111A30AF100ED78A183230BB2
:10152000F100938858A59357880023161101C887A6
:1015300085482308B100A308C100A30B010121467F
:10154000230CF100BD45935708016800135888012A
:10155000230711012309C100A309D100230AE100D7
:10156000A30CF100230D0101EFF0DFA0A30DA100FA
:101570002181230EA100C5456800EFF09FA30561FE
:101580006FE05FBD411122C63744014093055052C0
:1015900013050480EF00100839C513050480EF001F
:1015A00090059387C1849E239386E18492228507C8
:1015B00093F7F7071375F50F1387C1846397C70077
:1015C000922205061376F60792A212239386418A89
:1015D000B29688A237450140930550521305058005
:1015E0001EA3EF00F0063244410173002030EFE209
:1015F0003FB41307400B41112A84930740FB6363F8
:10160000A700AA8713F6F70F9307007D3306F602AB
:101610009307400B37050040130505403356F6028B
:101620001306461F42064182B28532C6F125324674
:1016300037450000A2851305C56AEF10605D4101C2
:101640006FE05FB1EFE2DFAE37450000130545699B
:10165000EF10406D0145EFF09FF96FE0BFAFEFE293
:101660003FAD3745000013050565EF10A06B13056E
:10167000A005EFF0DFF76FE0FFADEFE27FAB797130
:101680008545154502CA02CC02CE02C402C6231803
:10169000010002D002D202D402D6192B8545094599
:1016A0003D2393070004FC8237150140E1473ECEFD
:1016B0004C088D47130505803ECC712C83A7818093
:1016C00037470F0013070724B3D7E702370400405A
:1016D0002C001305044023150100FD177C84956739
:1016E0009387F7E13EC61923C167938707063ED06B
:1016F0000C109307401F130504402313F102231419
:101700000102B12313050440A145C523130504407C
:1017100085457D2B130504408545792BEFF03FF47B
:10172000374500009305A00513058566EF10404E70
:1017300045616FE03FA2EFE2BF9F0545B926092250
:101740001527716513050520EF00E07AEFF0EFCE65
:10175000EFF0AFD3F5BFB71702409843B706FFF0DD
:1017600041111367170098C3D84337060200758FDD
:10177000D8C39843B706F7FEFD16758F98C39843F4
:10178000B706FCFFFD16758F98C3D843B70601FF57
:10179000FD16758FD8C337079F0098C702C402C6CD
:1017A0009843C166558F98C3B716024005679C429F
:1017B000F18F3EC6A24785073EC4B24781E7A247E4
:1017C000E397E7FEB71702409C431397E700635780
:1017D000070685473EC632478547631FF704B7179C
:1017E0000240D843B706C1FFFD16D8C3D843D8C3BB
:1017F000D84313670740D8C3D843758FD8C3D8439D
:10180000B7062900558FD8C39843B7060001558FF6
:1018100098C3984393166700E3DD06FED843B716D6
:101820000240719BD8C3D84313672700D8C3214710
:10183000DC42B18BE39EE7FE4101828002C661BFBC
:10184000B7160240DC421146B18B13878180638555
:10185000C70021466388C702B7177A00938707201D
:101860001CC3B7170240DC43918393F6F700B70718
:10187000002093870700B69794231C43B3D7D70063
:101880001CC38280DC42D4424166C983BD8BF18E89
:10189000890745466393C700C94781EEB7460240B2
:1018A00083A60680C18A89CEB7167A009386062061
:1018B00021A8B7160240D4421396E600E35606FE6E
:1018C000B7163D0093860690B387D70251BF01A09B
:1018D00097F1FF1F938101FB1731002013018172E3
:1018E000173500001305450197E5FF1F93858571A6
:1018F0001386018263FAC5008322050023A05500E8
:1019000011059105E3EAC5FE138501829385819255
:101910006377B500232005001105E36DB5FEFD4298
:10192000739002BC8D427390428093028008739042
:10193000023097E2FFFF9382226D93E232007390B0
:101940005230EFF05FE197020000938202DF739064
:101950001234730020309C4513F7070113F8F70089
:1019600001C7D8413368E80037270240145B3707C6
:10197000000F758F4DEB85462388D18437170140C2
:101980006315E5009A2135839AA18E2113F7F50F8F
:1019900039C318418146854E3D4F930F8002930213
:1019A0008004214E3396DE00B3F8C50063111603A0
:1019B0009398260033131F011343F3FF3377E3009B
:1019C000B318180133E7E8006397F70750C9850695
:1019D000E39AC6FD18C11307F00F6375B7045441AD
:1019E0002146854E3D4F930F800293028004414E65
:1019F000B398CE0033F715016392E802131726005F
:101A000001173313EF001343F3FFB376D3003317FB
:101A1000E800D98E6395F703232A15010506E3191B
:101A2000C6FD54C1828037170140E310E5F603C7B5
:101A3000018521DF81BFE39C57F810C949BFE39FAF
:101A400057FC23281501D9BFB71701406316F500CD
:101A500083C7018591C3B58108456D8D3335A000DD
:101A60008280B71701406316F50083C7018591C3D3
:101A7000B5810CC98280B71701406316F50083C792
:101A8000018591C3B5814CC9828023AAA18482803B
:101A900003A74185854714216310F7021C31639C1D
:101AA000E7023C21960793E707F837E700E093F752
:101AB000F70F36972300F740054793D756003317A3
:101AC000D700544189CE938707048A07B7E600E020
:101AD000B69798C38280EDF33C219607F9B79387B8
:101AE0000706B7E600E08A07B69798C30F10000014
:101AF0008280371702405C439146B18B6385D700E3
:101B0000A1466382D706B7177A00938707201CC1C6
:101B1000371602405C423707002013070701918304
:101B2000BD8BBA9794231C41B3D7D7005CC15442F4
:101B3000A1829D8ABA969422B3D6D70014C5544286
:101B4000AD829D8A36971823B3D7E7005CC558420B
:101B50003983937637001387C18036971823B3D71C
:101B6000E7021CC982805C435843C166C983BD8BB0
:101B7000758F8907C5466393D700C94701EF37477B
:101B8000024003270780418B09CF37177A001307DC
:101B9000072021A83717024058439316E700E3D6E1
:101BA00006FE37173D0013070790B387E70285B796
:101BB00099C5371702401C4F5D8D08CF8280B7173B
:101BC0000240984F1345F5FF798D88CF828099C5E3
:101BD000371702405C4F5D8D48CF8280B7170240B7
:101BE000D84F1345F5FF798DC8CF82801E21373736
:101BF0000140130707C0C207C1836300E50237072E
:101C00000040630CE500130707406308E500371741
:101C10000040130707806316E500BA2193F7F7F831
:101C2000D98FFA2193F7F7CFC207C183D98F1EA1AD
:101C3000DE215EB59E211EB5B7370140938707C0F0
:101C40006314F5009C251EB985475EA982801E316C
:101C5000922103D82500C207C183F99BC207C18323
:101C60001EB11E3156211A2DC207C183420741837E
:101C70001377C7F8518F9225F59BC206336606018C
:101C8000D18F37360140130606C0C1826310C502EA
:101C9000B225DD9B03D8E500D18FD221ED9B93F6D1
:101CA000F6CFD18FD22533660601D18E56A11AAD5B
:101CB000FA215AB91EB182801E2189C593E7170007
:101CC0001EA18280C207C183F99BC207C183CDBF19
:101CD0001E2189C593E707081EA18280C207C18320
:101CE00093F7F7F7C207C183C5BF1E2DC207C18393
:101CF000DD9BDD8D0EAD82804EB98280EFE24FC359
:101D00001A29F577FD17F98FFA2101112A84D98F45
:101D10001EA99A25DE215625AE84D98FBA25D98FE2
:101D20007D771307379F758FD98F5EA55E29DA25DA
:101D3000C207C18393F7F7CFD98F5EA96800EFF090
:101D40005FDBB7470140938707806316F404E247DF
:101D50006545B335F502904081460A063305F50224
:101D60002525930640063357D5021207935747009F
:101D7000B387F6021D8D931745001385270393073C
:101D8000F06363FCA70013050701420541810AA423
:101D900005616FE02FBCD24765BF3355D502598D21
:101DA000EDB791C55E250967D98F5EA582805A255A
:101DB000F977FD17F98FD5BF13F7F50F8547158311
:101DC000B395B7006319F7009307C500984301CE98
:101DD000D98D8CC38280894693074501E318D7FECD
:101DE00093070501E5B793C5F5FFF98DDDB793F5C9
:101DF000F51F4EA182804A211375F51F82800A21AA
:101E00006D8D3335A000828093C5F5FFC205C18179
:101E10000EA1828013F7F50F85461583B397B600A0
:101E20006311D7025A25F98F1A21014542074183D0
:101E300081CB0545A181B315B5006D8F3335E00029
:101E4000828089466314D7001A29F1BF5A29E1BF5D
:101E5000A1818547B397B70093C7F7FFC207C18336
:101E60001EA1828083A7818037177A00130707207D
:101E7000B3D7E70293F7F70F238DF1841307803E62
:101E8000B387E702239CF1848280B7F700E0D84350
:101E90008146799BD8C303C7A1853306A70290CB9F
:101EA000D4CB98431367070198C39843136717026D
:101EB00098C3D843058B75DF9843799B98C382807C
:101EC000B7F700E0D8438146799BD8C303D7818513
:101ED0003306A70290CBD4CB98431367070198C36E
:101EE00098431367170298C3D843058B75DF98434F
:101EF000799B98C38280EFE2AFA32A841165011118
:101F000085451105EFF0DFCA930700207C82371565
:101F100001408D473EC44C00E147130505803EC695
:101F2000EFF07FA322C837440140B70708000C0830
:101F3000130504803ECC02CA231E0100EFF01FDC13
:101F4000854513050480EFF0DFE505616FE08FA0A4
:101F5000EFE26F9CB7440140AE893289014493841B
:101F60000480634524014A856FE02F9E9305000499
:101F70002685EFF0DFE87DD9B387890083850700E8
:101F800026850504C205C181EFF07FE6D9BF13871E
:101F900001811C43938681923E95636BD500B756B1
:101FA00000209386068063E5A60008C33E858280F4
:101FB000FD57EDBF014863C5050E63DB0600330620
:101FC000C040B337C000B306D0401348F8FF9D8E21
:101FD000B6873283AA8EAE88639F061663FBC50C54
:101FE0004167636FE61CB70700016363F6369356DB
:101FF0008601E14717270000130747763697182315
:10200000BA97130700021D8F19CBB395E500B3579C
:10201000F5003313E600B3E8B700B31EE50013562E
:102020000301B3D7C80293160301C18213D70E016F
:10203000B3F5C8023385F602C205B3E8E50063FADA
:10204000A8009A981387F7FF63E4680063E8A83252
:10205000BA87B388A840B3D5C802C20E93DE0E017A
:10206000B3F8C802B386B602C208B3E8D80163FB6E
:10207000D8009A981387F5FF63E56800F91563E3C4
:10208000D800BA85139507014D8D81456309080075
:102090003305A040B337A000B305B0409D8D8280CA
:1020A0003305A040B337A000B305B0409D8D7D58E7
:1020B00029B701E605433353D30241676369E30E51
:1020C000B7070001636AF32893568301E147172796
:1020D00000001307A76836971823BA971307000262
:1020E0001D8F65EB93180301B3866540135F0301F1
:1020F00093D80801854513D70E01B3D7E603B3F68D
:10210000E60333861703C206558F637AC7001A9712
:102110009386F7FF636467006365C726B687118FF0
:10212000B356E703C20E93DE0E013377E703B3889D
:10213000160342073367D701637B17011A9713868B
:10214000F6FF63656700F91663631701B28613959E
:102150000701558D25BF63E1D504C16763E1F6042E
:10216000B707000163E2F61E93D8860161479727FF
:1021700000009387A75EC69703C30700930700027A
:102180003A93B3876740E9EB63ECB61C3335C5007F
:10219000134515008145DDBD81450145C5BD93074A
:1021A000F00F63F2D71C93D886002147C9B71307F5
:1021B000F00F9A86E37D67F093568300A14701BF35
:1021C0001307F00FB286E377C7E293568600A14764
:1021D00015B53313E30033D6F500135F0301335E07
:1021E000E603B396E500B357F500DD8E93180301BF
:1021F00093D80801B31EE50093D50601B377E60333
:102200003387C803C207CD8F63FBE7009A97130695
:10221000FEFF63E3671663F1E716791E9A97998FBD
:1022200033D6E703139706014183B3F7E7033385FA
:10223000C80293960701D98E63FBA6009A9693076E
:10224000F6FF63E7661263F5A61279169A96931560
:102250000E01898ED18D45B533576600B396F600D1
:10226000D98EB3D8650013DF0601B3DEE803139EF1
:10227000060133536500135E0E01B395F500B36597
:10228000B30013D705013316F600B3F8E8033303A0
:10229000DE03C20833E7E800637B67003697938864
:1022A000FEFF6369D70C6377670CF91E3697330717
:1022B00067403353E703C205C1813377E703B308AF
:1022C0006E024207D98D63FB1501B6951307F3FF24
:1022D00063EED50863FC15097913B695C20E416FFC
:1022E000B3EE6E001307FFFFB3F6EE0013D30E013B
:1022F000718F4182338EE602B3851541B386C602E3
:1023000093580E013307E302BA96C6963306C3020A
:1023100063F3E6007A9613D306011A9663E2C502C8
:102320006385C5007685814595B341677D17F98E34
:10233000C206337EEE00B317F500F296E3F4D7FE43
:102340001385FEFF814599B393D80601414705B532
:1023500093560601C14779B993560301C14785BB1E
:102360008145054525B3B688014711B53A83BDB708
:102370003E86F1BDC68E25BF328E55B5F9179A98A7
:10238000C9B9F9171A9761BBB687B2882A832E8814
:10239000639B061463F8C50A4167636BE61AB707C7
:1023A00000016360F63493568601E1471727000069
:1023B0001307C73A36971823BA97130700021D8FE1
:1023C00019CB3398E500B357F500B318E60033E8AE
:1023D00007013313E50013D608013355C80293965D
:1023E0000801C182935703013377C802B385A6025F
:1023F00042073368F700637AB80046989307F5FF01
:10240000636418016365B8303E853308B8403357BC
:10241000C8024203135303013378C802B386E602AD
:10242000420833686800637BD80046989307F7FF3B
:102430006365180179176363D8003E874205598D9B
:102440008145828001E60547B358C702416763E8CA
:10245000E80EB707000163EAF82893D68801E14740
:10246000172700001307872F36971423BE9693076C
:102470000002958FFDE7939E08013387154113DF16
:10248000080193DE0E018545935703013355E70399
:102490003377E703B306D5034207D98F63FAD70032
:1024A000C6971307F5FF63E4170163E5D7263A855E
:1024B000958F33D7E703420313530301B3F7E703C1
:1024C000B30ED703C207B3E7670063FBD701C69714
:1024D0009306F7FF63E51701791763E3D7013687A2
:1024E0004205598D828063E1D504C16763E1F6043A
:1024F000B707000163E3F61E13D7860161489727EB
:1025000000009387A725BA979823130E00024297DD
:10251000330EEE40631A0E0C63EDB61C3335C50066
:1025200013451500814582808145014582809307CE
:10253000F00F63F3D71C13D786002148C9B71307E0
:10254000F00FC686E37E17F193D68800A14709BF36
:102550001307F00FB286E37BC7E493568600A147CA
:10256000B1B5B398F80033D6D50013DF0801335E58
:10257000E6033397F500B356D500558F939E0801B7
:1025800093DE0E013313F50093550701B376E6038E
:10259000B387CE03C206CD8E63FBF600C696130644
:1025A000FEFF63E4161763F2F616791EC6969D8E3B
:1025B00033D6E60393170701C183B3F6E6033385E9
:1025C000CE02139706015D8F637BA70046979307A2
:1025D000F6FF636817136376A7127916469793156B
:1025E0000E01098FD18D4DB5B357E600B396C601E4
:1025F000DD8E33D3E50013DF0601B357E303939E6B
:10260000060193DE0E013398C5013357E5003368A8
:102610000701935808013316C6013373E303B385EA
:10262000FE024203B368130163FBB800B698138738
:10263000F7FF63EAD80C63F8B80CF917B698B388BB
:10264000B84033D7E803420813580801B3F8E80349
:102650003383EE02C208B3E5080163FB6500B6955B
:102660001308F7FF63EDD50863FB65087917B69586
:10267000C207416FD98F1307FFFFB3F6E70093D866
:102680000701718F4182B38EE602B3856540B38640
:10269000C60213D80E013387E802BA96C296338673
:1026A000C80263F3E6007A9693D80601469663E281
:1026B000C5026385C5003E858145828041677D17DF
:1026C000F98EC206B3FEEE003315C501F696E3742B
:1026D000D5FE1385F7FF8145828013D70601414857
:1026E00039BD93560601C147D1B193D60801C14700
:1026F00085BB8145054582803687014809B54287FB
:1027000085BF3E86E9BDBA871DBF328E4DB57915AE
:102710004698E5B97915C69761BB3971935775012C
:102720004AD856D25ECE931A95001359F50106DEAB
:1027300022DC26DA4ED652D45AD093F7F70F93DA2A
:102740009A00CA8B638207121307F00F6384E712A3
:102750008E0A37070004B3EAEA00138A17F8014427
:10276000014B93D775019394950093F7F70FA580CC
:1027700093D9F501FDC71307F00F6387E7028E04B5
:10278000938717F837070004D98C330AFA4081463B
:10279000558C17270000130767F40A043A941C406D
:1027A00033493901BA978287130A1AF0F9E8894642
:1027B000558C17270000130767F60A043A941C404B
:1027C00033493901BA97828701491307F00FB707D8
:1027D000400013959700F2506254931777012581BA
:1027E0007E095D8D33652501D2544259B259225A72
:1027F000925A025BF24B216182801307F00F8147EE
:10280000C9BFA68ACE8B368B89476309FB1A8D47D1
:10281000E30CFBFA85476308FB0A1307FA0713F971
:102820001B006355E01293F77A0099C793F7FA00FB
:1028300091466383D700910A93974A0063D90700B2
:10284000B70700F8FD17B3FAFA0013070A08930751
:10285000E00FE3C4E7FA93976A00A5831377F70FB5
:102860008DBFB1E48546A9B763940A021144014AB9
:10287000054BC5BD63990A002144130AF00F094BAB
:10288000CDB58D4631B73144130AF00F0D4BD1BD94
:1028900056852EC6B12C9307B5FFB39AFA0093075D
:1028A000A0F8338AA7400144014BB2455DBD26859F
:1028B00081241307B5FFB307AA00B394E400138A79
:1028C00067078146F1B513F91B000147814711B72E
:1028D0004166139554007D1693570501698E63FA7E
:1028E0009A0AB3D5FA027D1AD68601473388C50203
:1028F000B3F6F602C206558F637B07012A979386CB
:10290000F5FF6368A70A6376070BF9152A97330763
:102910000741B356F7023377F702B38AC60293171B
:10292000070163FB5701AA971387F6FF63E1A70826
:1029300063FF5707F916AA97C205B38A5741D58D89
:10294000B33A5001B3EA5501CA8BC1BD8546998E91
:1029500011C76D4601478147E34DD6E6130AEA09E0
:10296000339A4A01B3D7DA00B33A4001B3E75701CB
:1029700013F7770019C713F7F70091466303D700E1
:10298000910713975700634807029A07A5830147E9
:1029900089B593D61A00B3D5F6021397FA0141838D
:1029A0003388C502B1B7CE8B368B814AB1BDBA86AA
:1029B00061B7B685A9BF0547814721BD13F91B0043
:1029C0001307F00F814731B53706800013577501A3
:1029D0009307F6FF1377F70F9305E007B3F6A70009
:1029E0009357F50163FCE5009305D00963FAE50010
:1029F000370500801345F5FF3E95828001458280B2
:102A000093055009D18E63CDE500130660093307A5
:102A1000E64033D7E6003305E040F5F33A8582809F
:102A20001307A7F63397E600FDB7411106C622C487
:102A300026C20DCD9357F54133C4A7001D8CAA843F
:102A400022857D209307E0093387A740930760091B
:102A5000FD8063CCE702A1469377F70F63D5A6000C
:102A600061153314A4002604258021A081448147E8
:102A70000144260413559400B2402244DE07FE04AC
:102A80005D8D458D9244410182809307900963DDFD
:102A9000E7009307B5019546B317F400898E3354C8
:102AA000D400B337F0005D8C954763D6A700930739
:102AB000B5FF3314F400B70600FCFD1693777400DD
:102AC0003376D40085C39377F4009145638CB700C7
:102AD00011069317560063D707009307F009758E08
:102AE0003387A7401314660025809377F70F51B7FB
:102AF000C167637CF5029307F00F1307000263EBD5
:102B0000A70097270000938767C5AA9788233305F6
:102B1000A7408280218197270000938727C4AA9726
:102B2000882361473305A7408280B7070001636DA2
:102B3000F500618197270000938747C2AA978823F1
:102B400021473305A7408280418197270000938762
:102B5000E7C0AA97882341473305A7408280B3C7BF
:102B6000A5008D8B3307C50081E78D4763EDC70056
:102B7000AA87637EE508942185078505A38FD7FE84
:102B8000E3EBE7FE828093763500AA8789CA942119
:102B900085078505A38FD7FE93F63700C5BF9376CB
:102BA000C7FF138606FE63F0C70683A3050083A252
:102BB000450083AF850003AFC50083AE050103AEBA
:102BC000450103A3850183A8C5019385450223A080
:102BD000770003A8C5FF23A2570023A4F70123A66B
:102BE000E70123A8D70123AAC70123AC670023AEBE
:102BF00017019387470223AE07FF75B790419107EE
:102C0000910523AEC7FEE3EBD7FEE3E6E7F682804D
:102C100039713EDA2ED232D436D63AD842DC46DE8C
:102C20009387418122CC804326CA06CEAA8409C458
:102C30001C4C99E32285B52B0C4454102686228522
:102C400036C6EF00B050F2406244D2442161828027
:102C5000011126CA4AC806CE22CC4EC652C4AA8446
:102C60002E8901C51C4D91E3A9239C4C804499E316
:102C70002685812397270000938747C0631BF402B2
:102C8000C0405E24A18BB1C71C48A1C7FD59294A89
:102C90001C4483450900FD17B1E91CC463DD070628
:102CA0002286A94526852122FD576308F50229457C
:102CB00035A097270000938767BE6314F400804413
:102CC000C9B797270000938767B9E31CF4FAC0449B
:102CD0004DBFA2852685512A55D97D55F2406244C3
:102CE000D2444249B249224A056182801CC4050986
:102CF00063D70700184C63CAE700638845011C408E
:102D00001387170018C08CA361B72286268545203B
:102D1000E31035F9D9B71C401387170018C02947AD
:102D200098A371B793874181AA8588436FF05FF2BA
:102D300035713ECBA6DA36C73AC942CD46CF938726
:102D4000418186DEA2DC844363DB05009307B00883
:102D50009CC07D55F6506654D6540D618280930711
:102D60008020FC822AC42ACC814799C19387F5FF31
:102D70003EC83ECE7401FD572E8426852C00FC8370
:102D800036C2EF00700FFD576355F5009307B0088A
:102D90009CC069D0A247238007006DBFAA87850722
:102DA00003C7F7FF6DFF3385A7407D1582800111B2
:102DB00022CC26CA4AC806CE4EC6AA842E893284A0
:102DC00001C51C4D91E3F52697270000938707ABBB
:102DD0006317F406C0401C4C1CC45E24A18BC1C305
:102DE0001C48B5CF1C4808409379F90F1379F90FA7
:102DF0001D8D5C486346F500A2852685692C25E576
:102E00001C440505FD171CC41C401387170018C07F
:102E1000238037015C486388A7005E24858B81CBC3
:102E2000A9476316F900A2852685B5240DEDF24069
:102E300062444A85D2444249B2490561828097275B
:102E400000009387A7A56314F400804469B797270F
:102E500000009387A7A0E310F4F8C044ADBFA2859B
:102E60002685212041D17D59D9B7411193874181D0
:102E700026C2844322C44AC006C62A892E8489C435
:102E80009C4C99E326853526972700009387079F5A
:102E9000631BF402C0400317C40093170701C183EA
:102EA00093F68700ADEA93F6070195EEA547232038
:102EB000F900136707045AA47D55B2402244924496
:102EC000024941018280972700009387279D631460
:102ED000F4008044C9B79727000093872798E31C24
:102EE000F4FAC0444DBF918B9DC34C5889C99307D8
:102EF00044046384F5004A85292B232A04025E24B6
:102F00002322040093F7B7FD5EA41C481CC05E2476
:102F100093E787005EA41C4899EB5E24130700200A
:102F200093F707286385E700A2854A8591295E24E7
:102F300013F717001DC35C4823240400B307F040B7
:102F40001CCC1C480145B5FB8317C40013F70708C8
:102F50002DD793E707045EA485B7898B014791E3DA
:102F6000584818C4F9BFDE25011122CC26CA06CE66
:102F70004AC84EC613F78700AA842E8479EBD8413D
:102F8000634DE000B841634AE0000145F24062440D
:102F9000D2444249B2490561828058547DD703A981
:102FA00004009396370123A0040063DB06067048F3
:102FB0005E24918B99C75C401D8E5C5899C33C4040
:102FC0001D8E5C540C50814626858297FD575A24ED
:102FD000631DF5009440F54763E8D706B707402026
:102FE0008507B3D7D700858BA5C31C4823220400CF
:102FF0001CC09317370163D80700FD576314F50011
:103000009C4091E368C84C5823A02401BDDD930780
:1030100044046384F5002685ED2E232A0402B5B707
:103020000C500146854626850297FD572A86E311F6
:10303000F5F89C40B5DF75476385E7005947639312
:10304000E70423A0240191B7136707045AA47D5510
:1030500035BF83A90501E38A09F203A905008D8B19
:1030600023A0350133093941014791E3D84918C4F8
:10307000E35D20F11C540C50CA864E86268582974B
:103080006347A0005E2493E707045EA4C9B7AA992A
:103090003309A940F1BF9C49A5C3011122CC06CE3A
:1030A0002A8411C51C4D81E72EC62122B2459717EF
:1030B00000009387A77C639CF5004C408397C50074
:1030C0009DC722856244F24005616FF0DFE99717E2
:1030D00000009387A77C6394F5000C44C5B797174D
:1030E00000009387A777E39BF5FC4C44C1BFF240F7
:1030F000624401450561828001458280411122C4FC
:1031000006C62A844EA572A52320050023220500A9
:10311000232405002322050623280500232A050071
:10312000232C0500214681451305C505EFD04F83AB
:10313000971700009387C7E75CD097170000938725
:10314000E7E91CD4971700009387C7ED5CD4971765
:103150000000938727F000D01CD8B24022444101E0
:10316000828097050000938545F391AA411126C2FC
:10317000130680069384F5FFB384C4024AC02E89E7
:1031800022C406C6938544070D2E2A8401CD232030
:10319000050023222501310508C4138684068145D4
:1031A000EFC01FFC2285B2402244924402494101F3
:1031B00082801C4DA5E7411106C622C49707000076
:1031C000938767FA1CD5938781819C432324050448
:1031D00023260504232805046314F50085471CCD28
:1031E0002A84352848C022851D2808C42285052840
:1031F00048C4484001469145EFF05FF00844054659
:10320000A545EFF0BFEF48440946C945EFF01FEF71
:1032100085471CCCB240224441018280828041110A
:103220009387818126C284434AC006C69C4C22C42F
:103230002A8981E72685EFF0DFF7938484048044B0
:10324000DC40FD1763D607009C40B9CF8440C5BF62
:103250000317C40039E7C17785072322040623201A
:10326000040023220400232404005CC42328040057
:10327000232A0400232C0400214681451305C4059C
:10328000EFC01FEE232A0402232C0402232404048B
:10329000232604042285B24022449244024941017B
:1032A00082801304840671BF91454A85EFF01FECBC
:1032B00088C049FDB1472320F9000144E1BF79717D
:1032C00022D44AD052CC56CA5AC85EC606D626D296
:1032D0004ECE2A8AAE8A130485040149054BFD5B54
:1032E00009ECB25022544A8592540259F249624A7A
:1032F000D24A424BB24B4561828004448329440048
:10330000FD1963D409000040E1BFDE24637BFB00AC
:103310008397E40063877701A6855285829A336993
:10332000A90093848406E9BF1971A6DAAE84839557
:10333000E500A2DC86DE328463DB0500DE2423A008
:10334000060093F7070885E7930700401DA03008A3
:1033500036C6EF00B055B246E34205FE7247BD6780
:10336000F98F7977BA9793B717009CC2F1BF93078B
:1033700000041CC0F6506654D65401450961828091
:10338000DE25011122CC06CE26CA4AC8898B2E849E
:1033900089CF930774041CC01CC885475CC8F240E1
:1033A0006244D24442490561828074003000AA849C
:1033B000EFF09FF7A2452A892685012219E9831794
:1033C000C40013F7072061FFF19B93E727005EA479
:1033D000C9B797070000938707D99CD45E2408C01B
:1033E00008C893E707085EA4A2475CC8B24781CF2C
:1033F0008315E4002685EF00104E11C55E24F19B75
:1034000093E717005EA45E243369F90023162401B4
:1034100079B7DDC183A7C5FF411122C406C626C204
:103420001384C5FF63D307003E94AA84EF00D055F0
:103430009387C1859C4381EF2322040023AE8184BE
:103440002244B2402685924441016F001054637EAD
:10345000F40014403307D4006396E7009843DC433C
:10346000369718C05CC0D9BFBA87D84319C3E37D6B
:10347000E4FE94433386D700631F86001040B29663
:1034800094C33386D700E31DC7FA10435843B2965E
:1034900094C3D8C375B76375C400B1479CC04DB71A
:1034A0001040B306C4006316D70014435843B296C5
:1034B00014C058C0C0C369B78280011126CA938462
:1034C0003500F19806CE22CC4AC84EC6A104B147B9
:1034D00063F5F404B14463E4B4042A89EF00D04AEC
:1034E0009387C18598433A8429E4938701869C4356
:1034F00099E781454A85EF00D02823A0A186A685BB
:103500004A85EF001028FD5963193507B14723207C
:10351000F9004A85EF00704729A0E3DE04FAB147BD
:103520001CC10145F2406244D2444249B24905619E
:1035300082801C40858F63CF0702AD4663F6F6009C
:103540001CC03E9404C031A05C406313870223AECC
:10355000F1844A85EF0070431305B40093074400DB
:1035600061993307F5405DDF3A94898F1CC05DBFD8
:103570005CC3C5B72287404085BF130435007198EE
:10358000E30285FCB305A4404A85EF00901FE31BCE
:1035900035FBADBF01114AC803A9850022CC52C436
:1035A0005AC006CE26CA4EC656C22E84328B368AE2
:1035B00063E92609DE2513F7074851C304408C4907
:1035C0005848AA8AB389B4408D44B384E4020947B9
:1035D000B3C4E402138716004E9763F3E400BA8481
:1035E00093F70740BDCFA6855685EFF01FED2A89DA
:1035F0001DE1B14723A0FA005E247D5593E707043F
:103600005EA4F2406244D2444249B249224A924AFC
:10361000024B056182800C484E86EFF04FD45E2449
:1036200093F7F7B793E707085EA42328240144C85B
:103630004E99B38434412320240104C45289637316
:103640002A01528908404A86DA85EF00902F1C44EF
:103650000145B38727411CC41C403E992320240107
:103660004DB726865685EF0070322A895DFD0C48DD
:103670005685EFF01FDAB5BFDE25717126D34AD12A
:103680004ECF06D722D552CD56CB5AC95EC762C59A
:1036900066C393F70708AA892E89B284B9C39C49E7
:1036A000A9E39305000436C6EFF03FE12320A9000B
:1036B0002328A900B24615E1B14723A0F9007D55A2
:1036C000BA502A549A540A59FA496A4ADA4A4A4B71
:1036D000BA4B2A4C9A4C4D61828093070004232AEE
:1036E000F90093070002A30CF1029307000302DA2A
:1036F000230DF10236CE930B5002971A0000938AE5
:10370000EA1B054C294B26841C2099C36399770931
:10371000B30C9440638E0C00E6862686CA854E85DF
:10372000EFF05FE7FD57630BF518D256E69636DAF1
:103730001C2063850718FD579304140002D002D69D
:103740003ED202D4A301010682DC8C2015465685A8
:10375000EF00B01D13841400825721E513F7070111
:1037600009C713070002A301E10613F7870009C781
:103770001307B002A301E10694201307A002638A95
:10378000E602B25726848146254618209305140088
:10379000130707FD6372E6068DC63ED61DA005041D
:1037A000A5B7330555413315AC00C98F3ED0A2846F
:1037B00069BF724793064700184336CE6347070236
:1037C0003AD618209307E002631DF70418309307D8
:1037D000A002631BF702F2470904138747009C43CA
:1037E0003ACE63C107023ED22DA83307E04093E7EB
:1037F00027003AD63ED0F1B7B387670385462E84BB
:10380000BA9761B7FD57C5B7050402D28146814713
:103810002546182093051400130707FD6376E60676
:10382000F9F20C200D46171500001305A509EF004D
:10383000D00F11CD971700009387C7081D8D9307F0
:103840000004B397A700025505045D8D2AD00C2013
:103850001946171500001305250793041400230CBF
:10386000B102EF00900C25C597C7FFFF93878779BA
:1038700095E70257F2471377071009CF91073ECE1D
:10388000D257D2973EDA41B5B387670385462E8477
:10389000BA9741B79D07E19BA107D5B7780897066E
:1038A0000000938666CF4A860C104E859700000074
:1038B000E7000000FD572A8AE314F5FC8357C9008E
:1038C0007D5593F70704E39D07DE5255D5BB780875
:1038D00097060000938646CC4A860C104E85092137
:1038E000D1BF1C46FD171CC663DA0700184E63C51E
:1038F000E700A9476394F5006FF06FCB1C422E855B
:103900001387170018C28CA38280011122CC26CA0B
:103910004AC84EC652C406CE2A89AE893284B30440
:10392000D6007D5A63149400014509A80C204E86E8
:103930004A85EFF01FFB0504E31645FFF2406244A1
:10394000D2444249B249224A05618280357122CD72
:1039500026CB4AC94EC706CF52C556C35AC1DEDE72
:10396000E2DCE6DAAA89AE843289368409C51C4DC8
:1039700099E3EFF01F8497170000938727F063986F
:10398000F40C83A44900DE24A18BE5C79C48F5C351
:1039900093070002A304F1029307000302D2230558
:1039A000F10222C6930B5002971A0000938A0AF183
:1039B000054C294B4A841C2099C3639F770DB30C97
:1039C0002441638E0C00E6864A86A6854E85EFF07C
:1039D000DFF3FD57630FF51C9256E69636D21C2096
:1039E0006389071CFD571309140002C802CE3ECAA2
:1039F00002CCA309010482D48345090015465685EB
:103A00002D2713041900C24751E913F7070109C70D
:103A100013070002A309E10413F7870009C713077E
:103A2000B002A309E104834609001307A002638FD3
:103A3000E606F2474A84814625461820930514007D
:103A4000130707FD6377E60AB5CA3ECE85A8971728
:103A500000009387A7E46395F40083A4890025B749
:103A600097170000938787DFE39FF4F083A4C900D2
:103A700019BFA6854E85EFF04FBF19D97D55FA4085
:103A80006A44DA444A49BA492A4A9A4A0A4BF65BD6
:103A9000665CD65C0D618280050431BF33055541FB
:103AA0003315AC00C98F3EC82289B9B73247930697
:103AB0004700184336C6634707023ACE18209307DB
:103AC000E002631DF70418309307A002631BF7029E
:103AD000B2470904138747009C433AC663C10702F3
:103AE0003ECA2DA83307E04093E727003ACE3EC8F0
:103AF000F1B7B387670385462E84BA973DBFFD575C
:103B0000C5B7050402CA814681472546182093059A
:103B10001400130707FD6374E606F9F20C200D4646
:103B200017150000130505DA092511CD97170000B8
:103B3000938747D91D8D93070004B397A70042458B
:103B400005045D8D2AC80C201946171500001305C1
:103B5000A5D7130914002304B102C12B35C197C79F
:103B6000FFFF9387274A95E74247B247137707102D
:103B700009CF91073EC69257D2973ED225BDB38753
:103B8000670385462E84BA9751B79D07E19BA1072D
:103B9000D5B7780097060000938666D726860C086E
:103BA0004E8597000000E7000000FD572A8AE314C5
:103BB000F5FCDE2493F70704E39207EC1255C1B538
:103BC000780097060000938686D426860C084E85DA
:103BD000012AE1BF797156CA9C49BA8A984522D414
:103BE00026D24ECE52CC06D64AD05AC85EC6AA8934
:103BF0002E84B284368A63D3E700BA879CC0034719
:103C0000340419C385079CC01C4093F7070281C781
:103C10009C4089079CC00329040013796900631A3A
:103C20000900130B9401FD5B5C449840998F634C31
:103C3000F9041C408346340493F70702B336D000DE
:103C4000A5EB13063404D2854E85829AFD57630393
:103C5000F5041C4011469840998B54448144639765
:103C6000C700B384E64063D3040081441C44184871
:103C70006354F700998FBE94014969047D5B639892
:103C80002405014509A885465A86D2854E85829A23
:103C9000631E75017D55B250225492540259F24967
:103CA000624AD24A424BB24B456182800509ADBFA0
:103CB0003307D40013060003A301C70403475404C9
:103CC00093871600A2978906A381E7049DBF8546C6
:103CD0002286D2854E85829AE30E65FB050945B79B
:103CE000797122D426D24AD04ECE06D652CC56CAAC
:103CF0005AC8B689942D930790063289AA842E84D7
:103D000013863504638DF60263E2D70693078005B8
:103D10006386F61863EDD700638E062093073004A0
:103D2000638EF60A930A24042301D404C9A09307DE
:103D300030066385F60A93074006E395F6FE1C40BD
:103D4000084393F6070893054500C5C61C410CC3FC
:103D500063D807001307D002B307F040A301E404BF
:103D6000971600009386C6B6294765A893070007F3
:103D70006382F61663E5D7029307E0066389F618B7
:103D80009307F006E390F6FA0C401C4313F805087D
:103D9000138547006307080608C39C4385A893075B
:103DA0005007E383F6FE930780076389F6129307B3
:103DB0003007E399F6F61C43D041814593864700CE
:103DC00014C383AA070056858D2601C533055541C6
:103DD00048C05C401CC8A301040461A81C43930AAA
:103DE0002404938647009C4314C32301F4048547AD
:103DF000D5B793F607041C410CC3B9DAC207C187D3
:103E000081BF93F5050408C3C9D99E231307F006A3
:103E10006387E60E97160000938686AB2947A301B9
:103E200004044C400CC463C5050008406D9908C0EB
:103E300099E3B28A89CDB28AB3F5E702FD1AB69545
:103E40008C212380BA00B3D5E70263F0E70CA147C9
:103E5000631EF7001C40858B91CB58401C4863C7FC
:103E6000E70093070003A38FFAFEFD1A33065641BD
:103E700010C84E87CA867000A2852685EFF09FD5B0
:103E80007D5A631D450B7D55B25022549254025900
:103E9000F249624AD24A424B45618280A382D504EC
:103EA000971600009386C6A20C40084313F8050835
:103EB0001C411105630D080208C313F7150001C763
:103EC00093E505020CC04147B9FB0C4093F5F5FDA5
:103ED0000CC0B1B79C4193E707029CC193078007D0
:103EE000A302F404971600009386C69F75BF13F8CB
:103EF000050408C3E30308FCC207C1837DBF97160E
:103F000000009386E69C214719BFAE8735B79441E0
:103F10001C43CC4913F806081385470063060800C4
:103F200008C39C438CC339A008C393F606049C4382
:103F3000F5DA8EA323280400B28A25BF14485686DA
:103F4000CA8526858299E30045F51C40898B8DE75B
:103F5000B2474844E35AF5F23E853DB7854656865A
:103F6000CA8526858299E30065F3050A5C443247D9
:103F7000998FE345FAFEE9BF014A930A94017D5BFC
:103F8000F5B7411122C42A842E8523A2019206C6C8
:103F9000EFD0FFFFFD576317F500938741929C43D5
:103FA00091C31CC0B240224441018280411122C40D
:103FB0002E848395E50006C63524634905007C48B8
:103FC000AA977CC8B2402244410182805E247D775A
:103FD0007D17F98F5EA4FDB7DE25011122CC26CA1C
:103FE0004AC84EC606CE93F70710AA842E8432899B
:103FF000B68991C78395E5008946014609225E246A
:104000007D777D17F98F5EA48315E4006244F2404A
:10401000CE864A86B24942492685D244056125A802
:10402000411122C42E848395E50006C6C928FD5798
:104030005A24631AF500FD77FD17F98F5EA4B2408C
:104040002244410182808567D98F5EA468C8C5BFBC
:104050008395E50005A8411122C42A842E85B285E6
:10406000368623A2019206C6EFD09FEEFD57631756
:10407000F500938741929C4391C31CC0B2402244F7
:1040800041018280411122C42A842E8523A20192FB
:1040900006C6492AFD576317F500938741929C4352
:1040A00091C31CC0B240224441018280411122C40C
:1040B0002A842E85B28523A2019206C6952AFD5731
:1040C0006317F500938741929C4391C31CC0B24093
:1040D000224441018280411122C42A842E8523A2D8
:1040E000019206C6A12AFD576317F50093874192F6
:1040F0009C4391C31CC0B2402244410182804111C3
:1041000022C42A842E85B285368623A2019206C651
:10411000252AFD576317F500938741929C4391C36D
:104120001CC0B24022444101828093F5F50F2A96CB
:104130006314C500014582801C21E38EB7FE05058E
:10414000C5BF63F1A504B386C500637DD502934561
:10415000F6FF8147FD176393F50082803387F600F1
:10416000034807003387C7002A9723000701DDB7FC
:104170003387F50014233307F500850714A3E319EB
:10418000F6FE82808147E5BF8280828081E5B2852C
:104190006FF0AFB2011122CC06CE26CA4AC84EC675
:1041A000328401EEEFF0EFA60149F24062444A8505
:1041B000D2444249B24905618280AE84AA898928E5
:1041C0002689E37485FEA2854E85EFF00FAF2A891C
:1041D00069DDA6852286EFE09F98A6854E85EFF0E3
:1041E0004FA3E1B7411122C42A842E85B2853686B9
:1041F00023A2019206C6B928FD576317F5009387DD
:1042000041929C4391C31CC0B24022444101828030
:1042100083A7C5FF1385C7FF63D50700AA959C41F7
:104220003E9582809307800523A2F1927D5582807E
:104230009307800523A2F1927D5582809307800524
:1042400023A2F192014582809307800523A2F19277
:104250007D5582809307800523A2F1927D5582804F
:10426000485837313120526561642054696D656F5B
:104270007574210D00000000485837313120546119
:104280007265204661696C6564210D0048583731BC
:1042900031205461726520446F6E6521204F66663F
:1042A000736574203D202564202873616D706C65F2
:1042B0003D2575290D0A000050757368526F642002
:1042C000457874656E64696E672E2E2E0D000000B1
:1042D00050757368526F64205265747261637469BB
:1042E0006E672E2E2E0D000050757368526F64207D
:1042F00053746F707065642E0D000000060D000091
:10430000100D00001C0D0000300D0000480D0000D5
:10431000560D0000640D00006E0D0000780D0000C9
:10432000A40D0000260E0000280F00003E0E000025
:10433000280F00004A0E0000280F0000280F000080
:10434000280F0000620E0000280F0000BA0E0000C7
:10435000280F0000280F0000280F0000320E000078
:104360001E0E0000280F0000560E00001A0F00005D
:10437000280F0000280F0000280F0000C20E0000C8
:104380004641554C545F52455345545F4F4B0000D6
:10439000554E4B4E4F574E5F434D440050414F4397
:1043A00045524957534B0000244500002C4500005E
:1043B00034450000444500005045000060450000C1
:1043C000704500008045000090450000A0450000B9
:1043D000B0450000C0450000CC450000D8450000B5
:1043E000DC440000E4440000EC440000F44400001D
:1043F000FC44000000450000084500004044000067
:10440000904300001045000018450000485837311F
:10441000315F5245414459004F555445525F434C1A
:104420004F53455F4F4B00004F555445525F4F501F
:10443000454E5F4F4B00000053544F505F4F4B00B1
:104440004255535900000000464C4F575F535441AA
:10445000525400005041594C4F41445F4F4B0000B3
:10446000464C4F575F41424F5254454400000000B4
:104470005745494748545F54494D454F55540000EE
:10448000494E4E45525F4F50454E5F4F4B00000026
:10449000464C4F575F444F4E45000000434833326F
:1044A0005F5245414459000025730000554E4B4E64
:1044B0004F574E0053544147453D257300000000BF
:1044C00048583731315F4E4F545F5245414459008F
:1044D0005745494748543D256C6400004E4F4E45B2
:1044E0000000000054494D454F5554004C494D497A
:1044F0005400000057454947485400004A414D00C8
:1045000053454E534F520000534146455459000005
:104510004241445F43524300494E5445524E414C40
:104520000000000049444C45000000005245414451
:1045300059000000444F4F525F4F50454E494E477F
:1045400000000000444F4F525F4F50454E4544001D
:10455000545241595F455854454E44494E47000016
:10456000545241595F455854454E4445440000005B
:1045700057414954494E475F434152474F0000005D
:10458000434152474F5F444554454354454400001E
:10459000545241595F52455452414354494E470089
:1045A000545241595F5245545241435445440000CE
:1045B000444F4F525F434C4F53494E470000000059
:1045C000534146455F4C4F434B454400434F4D508C
:1045D0004C455445000000004641554C5400000035
:1045E000545241595F455854454E445F4F4B00006B
:1045F000545241595F524554524143545F4F4B000E
:1046000064120000B8120000F6120000101300003F
:10461000241300003C130000541300009E130000FC
:10462000C2130000D61300004241445F4C454E00C7
:104630005B41434B5D2000005B4442475D2000002E
:104640005B4552525D2000005B5354535D200000D7
:10465000496E6E6572446F6F7220436C6F73696E42
:10466000672E2E2E0D000000496E6E6572446F6F2E
:104670007220496E6974204F4B2E20646566617507
:104680006C7420636C6F736520616E676C653D258B
:10469000640D0A00496E6E6572446F6F72204F7030
:1046A000656E696E672E2E2E0D000000496E6E65D8
:1046B00072446F6F7220416E676C65202D3E20251D
:1046C00064206465672C2070756C7365203D20251F
:1046D000642075730D0A0000F8E1FFFF22E1FFFF7F
:1046E000F2E1FFFF2AE1FFFFF2E1FFFFF0E0FFFF51
:1046F000F2E1FFFF2AE1FFFF22E1FFFF22E1FFFFDE
:10470000F0E0FFFF2AE1FFFF30E1FFFF30E1FFFFB4
:1047100030E1FFFFF0E0FFFFE2E0FFFFE2E0FFFF3C
:10472000B2E1FFFF8EE2FFFFB2E1FFFFB0E0FFFF6B
:10473000B2E1FFFF8EE2FFFFE2E0FFFFE2E0FFFFFA
:10474000B0E0FFFF8EE2FFFFF0E0FFFFF0E0FFFFD1
:10475000F0E0FFFFB0E0FFFF0001020203030303EC
:104760000404040404040404050505050505050501
:1047700005050505050505050606060606060606E1
:1047800006060606060606060606060606060606C9
:1047900006060606060606060707070707070707B1
:1047A0000707070707070707070707070707070799
:1047B0000707070707070707070707070707070789
:1047C0000707070707070707070707070707070779
:1047D0000707070707070707080808080808080861
:1047E0000808080808080808080808080808080849
:1047F0000808080808080808080808080808080839
:104800000808080808080808080808080808080828
:104810000808080808080808080808080808080818
:104820000808080808080808080808080808080808
:1048300008080808080808080808080808080808F8
:1048400008080808080808080808080808080808E8
:104850000808080808080808000000000000000018
:104860000000000000000000000000000000000048
:104870000000000000000000000000000000000038
:104880000000000000000000000000000000000028
:104890000000000000000000000000000000000018
:1048A0000000000000000000000000000000000008
:1048B0000000000000000000232D302B200000002D
:1048C000686C4C00656667454647000030313233FE
:1048D00034353637383941424344454600000000FC
:1048E0003031323334353637383961626364656666
:0448F00000000000C4
:1048F400000000000000000001020304060708098C
:104904000000000001020304010203040607080971
:104914000000000078480000984800005848000053
:104924000000000000000000000000000000000083
:104934000000000000000000000000000000000073
:104944000000000000000000000000000000000063
:104954000000000000000000000000000000000053
:104964000000000000000000000000000000000043
:104974000080D5430100000000D8B80502040608F1
:10498400A8010020200000202000002000000000DA
:00000001FF
